:020000040800F2
:1000000070060020650200086D0200086F020008FB
:100010007102000873020008750200080000000069
:10002000000000000000000000000000770200084F
:1000300079020008000000007B0200087D02000831
:100040007F0200087F0200087F0200087F0200088C
:100050007F0200087F0200087F0200087F0200087C
:100060007F0200087F0200087F0200087F0200086C
:100070007F0200087F0200087F0200087F0200085C
:100080007F0200087F0200087F02000800000000D5
:100090000000000000000000000000007F020008D7
:1000A0007F0200087F0200087F0200087F0200082C
:1000B0007F0200087F0200087F0200087F0200081C
:1000C0007F0200087F0200087F0200087F0200080C
:1000D0007F0200087F0200087F0200080000000085
:1000E0007F0200087F0200087F0200080000000075
:1000F0000000000000000000000000007F02000877
:10010000000000007F0200087F0200087F02000854
:1001100000000000000000000000000000000000DF
:100120007F0200087F0200087F0200087F020008AB
:100130007F02000800000000000000000000000036
:100140000000000000000000000000007F02000826
:100150007F0200087F0200087F0200087F0200087B
:100160007F0200087F02000800000000000000007D
:10017000000000000000000000000000000000007F
:10018000000000007F0200080000000000000000E6
:100190007F0200087F02000800F002F800F052F829
:1001A00014A696E8000CB244B344DA4501D100F03D
:1001B00049F8BAE80F000FA696E83000A5EB040551
:1001C00004EB0607AAEB0704A7F101074FEA151590
:1001D0004FEA3414A4F10104AC4201D300F032F828
:1001E00013F0010F18BFFB1A43F0010300F001F8F0
:1001F000DBE718471407000034070000103A24BF5B
:1002000078C878C1FAD8520724BF30C830C144BF7B
:1002100004680C6070470000704700000023002451
:1002200000250026103A28BF78C1FBD8520728BF06
:1002300030C148BF0B6070471FB500F058FB1FBDB1
:1002400010B510BD00F031F81146FFF7F5FF00F0D2
:10025000E7F900F04FF803B4FFF7F2FF03BC00F03A
:1002600057F800000948804709480047FEE7FEE7C5
:10027000FEE7FEE7FEE7FEE7FEE7FEE7FEE7FEE756
:1002800004480549054A064B704700006905000807
:100290009901000870000020700600207002002004
:1002A00070020020704770477047754600F02CF8C8
:1002B000AE4605006946534620F00700854618B053
:1002C00020B5FFF7DDFFBDE820404FF000064FF0FE
:1002D00000074FF000084FF0000BAC46ACE8C00937
:1002E000ACE8C009ACE8C009ACE8C00921F00701DE
:1002F0008D46704710B50446AFF300802046BDE838
:100300001040FFF7A8BF0000004870471000002011
:1003100001491820ABBEFEE726000200704700002E
:1003200080B584B08DF80F0002919DF90F0001A9EE
:100330006A4600F023F901980021C4F202018842C4
:1003400003D1FFE700F0C0F8FFE7019840F2004159
:10035000C4F20201884203D1FFE700F0BFF8FFE7D3
:10036000019840F60001C4F20201884203D1FFE780
:1003700000F0BEF8FFE79DF90F00029900F002F8C7
:1003800004B080BD80B584B08DF80F0002919DF956
:100390000F0001A96A4600F0F1F80098410003201F
:1003A00000FA01F2019908689043086002980099E8
:1003B000490000FA01F2019908681043086004B08E
:1003C00080BD000080B584B08DF80F0002919DF9CA
:1003D0000F0001A96A4600F0D1F80099012000FA47
:1003E00001F201994868904348600298009900FA28
:1003F00001F2019948681043486004B080BD0000D4
:1004000080B584B08DF80F0002919DF90F0001A90D
:100410006A4600F0B3F800984100032000FA01F2A8
:100420000199C8689043C86002980099490000FA91
:1004300001F20199C8681043C86004B080BD000093
:1004400080B584B08DF80F009DF90F0002A901AAB4
:1004500000F094F8029800690199C84000F001008A
:1004600004B080BD80B584B08DF80F009DF90F00F9
:1004700002A901AA00F082F80199012000FA01F214
:10048000029948695040486104B080BD80B584B08D
:100490008DF80F0002919DF90F0001A96A4600F046
:1004A0006DF80099012000FA01F201994869904322
:1004B00048610298009900FA01F2019948691043D5
:1004C000486104B080BD000043F63001C4F202016F
:1004D000086840F0010008607047000043F63001F2
:1004E000C4F20201086840F0020008607047000092
:1004F00043F63001C4F20201086840F004000860CD
:100500007047000043F60001C4F20201086840F0A1
:1005100001000860FFE743F60000C4F20200006833
:100520008007002801D4FFE7F5E743F60801C4F28D
:100530000201086820F00300086008680860FFE70F
:1005400043F60800C4F20200006810F00C0F01D05E
:10055000FFE7F5E740F20001C2F2000142F200407D
:10056000C0F2F400086070474EF68851CEF20001E8
:10057000086840F4700008607047000085B08DF88E
:100580001300039102929DF8130000F00F000190F8
:100590000198029908609DF91300001100900098DD
:1005A00030B9FFE703990020C4F20200086035E08B
:1005B0000098012807D1FFE7039940F20040C4F2F8
:1005C0000200086029E00098022807D1FFE703999C
:1005D00040F60000C4F2020008601DE00098032805
:1005E00007D1FFE7039940F60040C4F2020008601B
:1005F00011E00098072807D1FFE7039941F6004072
:10060000C4F20200086005E003990020C4F2020071
:100610000860FFE7FFE7FFE7FFE7FFE705B0704788
:1006200080B584B000200090039000F0F7F80099A6
:100630000120029040F20400C2F2000090F9000094
:10064000FFF724FF009940F20500C2F2000090F984
:100650000000FFF71BFF009940F20600C2F2000005
:1006600090F90000FFF712FF009940F20700C2F274
:10067000000090F90000FFF709FFFFE72D20FFF7CA
:10068000DFFE01900198A8BBFFE70298012831D155
:10069000FFE740F20400C2F2000090F90000FFF70B
:1006A000CFFE38BBFFE740F20500C2F2000090F930
:1006B0000000FFF7C5FEE8B9FFE740F20600C2F20E
:1006C000000090F90000FFF7BBFE98B9FFE740F289
:1006D0000700C2F2000090F90000FFF7B1FE48B930
:1006E000FFE740F20400C2F2000090F90000FFF7BB
:1006F000B9FE8FE0019800BBFFE7029801281CD1EA
:10070000FFE740F20400C2F2000090F90000FFF79A
:1007100097FE012811D1FFE740F20400C2F2000069
:1007200090F90000FFF79EFE40F20500C2F20000C3
:1007300090F90000FFF796FE6BE0019800BBFFE721
:10074000029801281CD1FFE740F20500C2F2000028
:1007500090F90000FFF774FE012811D1FFE740F285
:100760000500C2F2000090F90000FFF77BFE40F2A6
:100770000600C2F2000090F90000FFF773FE47E0A8
:10078000019800BBFFE7029801281CD1FFE740F267
:100790000600C2F2000090F90000FFF751FE0128A8
:1007A00011D1FFE740F20600C2F2000090F900000C
:1007B000FFF758FE40F20700C2F2000090F9000077
:1007C000FFF750FE23E0019800BBFFE702980128E5
:1007D0001CD1FFE740F20700C2F2000090F90000D0
:1007E000FFF72EFE012811D1FFE740F20700C2F209
:1007F000000090F90000FFF735FE40F20400C2F25D
:10080000000090F90000FFF72DFEFFE7FFE7FFE78C
:10081000FFE7FFE70198029030E7000080B586B05F
:10082000FFF770FE40F20800C2F2000090F90000ED
:1008300000210591FFF774FD40F20400C2F20000B0
:10084000009090F9000001210391FFF769FD0098E5
:10085000039990F90000FFF7D3FD0098059990F9EE
:100860000000FFF7AFFD039940F20500C2F200005F
:10087000019090F90000FFF753FD0198039990F95A
:100880000000FFF7BDFD0198059990F90000FFF702
:1008900099FD039940F20600C2F20000029090F91F
:1008A0000000FFF73DFD0298039990F90000FFF763
:1008B000A7FD0298059990F90000FFF783FD0399C1
:1008C00040F20700C2F20000049090F90000FFF728
:1008D00027FD0399049890F90000FFF791FD049813
:1008E000059990F90000FFF76DFD06B080BDF1EEAF
:1008F000100A4FF6FF71C0F2C03120EA010040F04B
:100900004070E1EE100A704728090008000000203E
:1009100010000000FC010008380900081000002049
:10092000600600001C0200080024F40005060716FB
:080930002D0000000000000092
:040000050800019955
:00000001FF
