:020000040800F2
:1000000018070020650200086D0200086F02000852
:100010007102000873020008750200080000000069
:10002000000000000000000000000000770200084F
:1000300079020008000000007B0200085D0B000848
:100040007F0200087F0200087F0200087F0200088C
:100050007F0200087F0200087F02000839030008C1
:100060007F0200087F0200087F0200087F0200086C
:100070007F0200087F0200087F0200087F0200085C
:100080007F0200087F0200087F02000800000000D5
:100090000000000000000000000000007F020008D7
:1000A0007F0200087F0200087F0200087F0200082C
:1000B0007F0200087F0200087F0200087F0200081C
:1000C0007F0200087F0200087F0200087F0200080C
:1000D0007F0200087F0200087F0200080000000085
:1000E000210300087F0200087F02000800000000D2
:1000F0000000000000000000000000007F02000877
:10010000000000007F0200087F0200087F02000854
:1001100000000000000000000000000000000000DF
:100120007F0200087F0200087F0200087F020008AB
:100130007F02000800000000000000000000000036
:100140000000000000000000000000007F02000826
:100150007F0200087F0200087F0200087F0200087B
:100160007F0200087F02000800000000000000007D
:10017000000000000000000000000000000000007F
:10018000000000007F0200080000000000000000E6
:100190007F0200087F02000800F002F800F052F829
:1001A00014A696E8000CB244B344DA4501D100F03D
:1001B00049F8BAE80F000FA696E83000A5EB040551
:1001C00004EB0607AAEB0704A7F101074FEA151590
:1001D0004FEA3414A4F10104AC4201D300F032F828
:1001E00013F0010F18BFFB1A43F0010300F001F8F0
:1001F000DBE71847C0110000E0110000103A24BFEF
:1002000078C878C1FAD8520724BF30C830C144BF7B
:1002100004680C6070470000704700000023002451
:1002200000250026103A28BF78C1FBD8520728BF06
:1002300030C148BF0B6070471FB501F0ADF81FBD5E
:1002400010B510BD00F031F81146FFF7F5FF00F0D2
:10025000E1FD00F04FF803B4FFF7F2FF03BC00F03C
:1002600057F800000948804709480047FEE7FEE7C5
:10027000FEE7FEE7FEE7FEE7FEE7FEE7FEE7FEE756
:1002800004480549054A064B70470000D10B000899
:100290009901000818010020180700201803002009
:1002A00018030020704770477047754600F02CF81F
:1002B000AE4605006946534620F00700854618B053
:1002C00020B5FFF7DDFFBDE820404FF000064FF0FE
:1002D00000074FF000084FF0000BAC46ACE8C00937
:1002E000ACE8C009ACE8C009ACE8C00921F00701DE
:1002F0008D46704710B50446AFF300802046BDE838
:100300001040FFF7A8BF000000487047A800002079
:1003100001491820ABBEFEE726000200704700002E
:1003200080B52D2000F05AFD20B1FFE72D2000F010
:10033000CDFCFFE780BD000080B5212000F04EFD20
:1003400050B1FFE700F0E8FB4FF47A7000F0D6FC04
:10035000212000F0BBFCFFE780BD000080B588B025
:100360008DF81F00069105929DF91F0004A903AAAC
:1003700000F0E2FC43F64401C4F20201086840F4D4
:100380008040086004980021C4F20201884203D131
:10039000FFE70020029026E0049840F20041C4F2FA
:1003A0000201884203D1FFE7012002901AE004987D
:1003B00040F60001C4F20201884203D1FFE70220A7
:1003C00002900EE0049840F60041C4F20201884217
:1003D00003D1FFE70320029002E004200290FFE730
:1003E000FFE7FFE7FFE7039800F003018A000F2112
:1003F00001FA02F320F0030143F60802C4F20102FD
:100400008858984388500299039800F003039B0092
:1004100001FA03F320F00301885818438850069826
:1004200060B9FFE70399012000FA01F243F60C419D
:10043000C4F201010868104308602BE00698012807
:100440000CD1FFE70399012000FA01F243F60841BD
:10045000C4F201010868104308601AE006980228F7
:1004600016D1FFE70399012000FA01F343F6084291
:10047000C4F20102116819431160039900FA01F2F4
:1004800043F60C41C4F20101086810430860FFE71D
:10049000FFE7FFE70399012000FA01F243F600416C
:1004A000C4F201010868104308600020019003981D
:1004B000042804D8FFE70398063001900AE0039867
:1004C000092803D8FFE71720019002E028200190B7
:1004D000FFE7FFE79DF90400059900F0D5FB9DF9C2
:1004E000040000F097FB08B080BD000080B584B028
:1004F0008DF80F0002919DF90F0001A96A4600F0E6
:100500001BFC01980021C4F20201884203D1FFE7DD
:1005100000F0BAF8FFE7019840F20041C4F202018E
:10052000884203D1FFE700F0B9F8FFE7019840F6F1
:100530000001C4F20201884203D1FFE700F0B8F8DD
:10054000FFE79DF90F00029900F002F804B080BDAA
:1005500080B584B08DF80F0002919DF90F0001A9BC
:100560006A4600F0E9FB00984100032000FA01F21E
:10057000019908689043086002980099490000FAC0
:1005800001F2019908681043086004B080BD0000C2
:1005900080B584B08DF80F0002919DF90F0001A97C
:1005A0006A4600F0C9FB00984100032000FA01F2FE
:1005B000019988689043886002980099490000FA80
:1005C00001F2019988681043886004B080BD000082
:1005D00080B584B08DF80F0002919DF90F0001A93C
:1005E0006A4600F0A9FB0099012000FA01F2019986
:1005F0004868904348600298009900FA01F2019916
:1006000048681043486004B080BD000080B584B0E5
:100610008DF80F0002919DF90F0001A96A4600F0C4
:100620008BFB00984100032000FA01F20199C86891
:100630009043C86002980099490000FA01F20199BC
:10064000C8681043C86004B080BD000080B584B0A5
:100650008DF80F0002919DF90F0001A96A4600F084
:100660006BFB0099012000FA01F20199486990435F
:1006700048610298009900FA01F201994869104313
:10068000486104B080BD000043F63001C4F20201AD
:10069000086840F0010008607047000043F6300130
:1006A000C4F20201086840F00200086070470000D0
:1006B00043F63001C4F20201086840F0040008600B
:1006C0007047000081B043F60041C4F2020108689F
:1006D00020F007000860086840F00200086043F658
:1006E0000001C4F20201086840F001000860FFE761
:1006F00043F60000C4F2020000688007002801D41D
:10070000FFE7F5E743F60001C4F20201086820F0B4
:100710008070086043F60402C4F20202009210687E
:1007200020F480001060106810601068542363F398
:100730008E1010601068082363F3050010601068C5
:1007400020F440301060086840F080700860FFE7D7
:1007500043F60000C4F20200006800F000710020BF
:10076000B0EB516F01D0FFE7F2E743F60801C4F2A6
:100770000201086820F003000860086840F00200E9
:100780000860FFE743F60800C4F20200006800F0CA
:100790000C00082801D0FFE7F4E743F60801C4F293
:1007A0000201086820F0F0000860086820F4E050BA
:1007B0000860086840F480500860086820F46040D1
:1007C000086040F20001C2F200014BF60050C0F296
:1007D0000150086001B0704780B584B08DF80F00FB
:1007E0008DF80E108DF80D208DF80C309DF80F004F
:1007F00040F20C11C2F2000108709DF80E00487022
:100800009DF80D0088709DF80C00C8709DF90F00D0
:1008100001210091FFF76AFE00999DF90E00FFF794
:1008200065FE00999DF90D00FFF760FE00999DF9A6
:100830000C00FFF75BFE9DF90F0000210191FFF70F
:10084000E5FE01999DF90E00FFF7E0FE01999DF983
:100850000D00FFF7DBFE01999DF90C00FFF7D6FEB6
:1008600001999DF90F00FFF7B3FE01999DF90E0064
:10087000FFF7AEFE01999DF90D00FFF7A9FE019962
:100880009DF90C00FFF7A4FE9DF90F0002210291D3
:10089000FFF77EFE02999DF90E00FFF779FE02999F
:1008A0009DF90D00FFF774FE02999DF90C00FFF70A
:1008B0006FFE04B080BD000080B586B00590049145
:1008C0000498012841D1FFE740F20C10C2F2000069
:1008D000029090F90000059901EB410240F20401F9
:1008E000C2F20001039101EB8201097AC1F3C00158
:1008F000FFF7ACFE0298039990F90100059A02EB0C
:10090000420201EB8201097AC1F38001FFF79EFEEA
:100910000298039990F90200059A02EB420201EB5A
:100920008201097AC1F34001FFF790FE0298039912
:1009300090F90300059A02EB420201EB8201097A69
:1009400001F00101FFF782FE45E00498002841D143
:10095000FFE740F20C10C2F20000009090F9000096
:10096000059901EB410240F23401C2F2000101910C
:1009700001EB8201097AC1F3C001FFF767FE00981D
:10098000019990F90100059A02EB420201EB820104
:10099000097AC1F38001FFF759FE0098019990F997
:1009A0000200059A02EB420201EB8201097AC1F3CF
:1009B0004001FFF74BFE0098019990F90300059A5A
:1009C00002EB420201EB8201097A01F00101FFF71B
:1009D0003DFEFFE7FFE706B080BD0000000000001D
:1009E00080B582B08DED000B9DED001B40F2A000A4
:1009F000C2F2000090ED000B51EC110B53EC102BE8
:100A000000F0CCFB41EC100B53EC102B9FED080BCE
:100A100051EC100B00F038FA41EC100B40F298004A
:100A2000C2F2000080ED000B02B080BD00BF00BF2D
:100A300000000000004CED4080B584B003900291AE
:100A4000019200200090039840F20C11C2F20001C4
:100A50004860FFE740F20C10C2F200004068002836
:100A600053D0FFE7019801281AD1FFE740F2980020
:100A7000C2F2000090ED000B51EC100B00F060FB97
:100A800000F03CF9009800EB400140F20400C2F293
:100A9000000000EB8100029950F82100009027E04F
:100AA000019820BBFFE740F29800C2F2000090EDF1
:100AB000000B9FED171B53EC112B51EC100B00F0AA
:100AC000E3F941EC100B51EC100B00F039FB00F096
:100AD00015F9009800EB400140F23400C2F200002A
:100AE00000EB8100029950F821000090FFE7FFE73A
:100AF00000980199FFF7E0FEFFE740F20C11C2F207
:100B00000001486801384860A4E704B080BD00BF18
:100B1000000000000000004080B582B040F20C10E0
:100B2000C2F20000009000210191416090F90000A4
:100B3000FFF78CFD0098019990F90100FFF786FD01
:100B40000098019990F90200FFF780FD0098019943
:100B500090F90300FFF77AFD02B080BD80B500F088
:100B600001F880BD40F20811C2F2000108680130AE
:100B70000860704780B582B04EF21001CEF20001DD
:100B8000002008600A6842F004020A604EF2140372
:100B9000CEF2000344F61F02C0F201021A604EF2C8
:100BA0001802CEF200021060086840F002000860EF
:100BB000086840F0010008604FF0FF3001901021FC
:100BC00000F040F8019800F00DF802B080BD000080
:100BD0004EF68851CEF20001086840F470000860BB
:100BE0007047000081B08DF803009DF903000028D4
:100BF0000ED4FFE79DF9031001F01F020120904081
:100C00004A094EF20011CEF2000141F82200FFE73E
:100C100001B0704781B08DF803009DF903000028F2
:100C20000ED4FFE79DF9031001F01F020120904050
:100C30004A094EF20011CEF2000141F82200FFE70E
:100C400001B0704782B08DF8070000919DF9070050
:100C500000280AD4FFE7009800019DF907104EF222
:100C60000042CEF2000288540BE0009800019DF88B
:100C7000071001F00F014EF61452CEF20002885414
:100C8000FFE702B07047000082B08DF807000091C6
:100C90009DF9070000280AD4FFE7009800019DF99C
:100CA00007104EF20042CEF2000288540BE000988A
:100CB00000019DF8071001F00F014EF61452CEF21C
:100CC00000028854FFE702B07047000080B584B08E
:100CD0008DF80F009DF90F0002A901AA00F02CF871
:100CE0000199012000FA01F243F61441C4F2010116
:100CF00008681043086004B080BD000082B0019015
:100D000040F20810C2F2000000680090FFE740F2D5
:100D10000810C2F2000000680099401A0199884248
:100D200001D2FFE7F3E740F20811C2F20001002010
:100D3000086002B07047000085B08DF81300039181
:100D400002929DF8130000F00F00019001980299A3
:100D500008609DF9130000110090009830B9FFE77A
:100D600003990020C4F20200086035E000980128D1
:100D700007D1FFE7039940F20040C4F20200086087
:100D800029E00098022807D1FFE7039940F6000008
:100D9000C4F2020008601DE00098032807D1FFE7B5
:100DA000039940F60040C4F20200086011E0009888
:100DB000072807D1FFE7039941F60040C4F202007B
:100DC000086005E003990020C4F202000860FFE714
:100DD000FFE7FFE7FFE7FFE705B0704780B584B0A6
:100DE0008DF80F009DF90F0002A901AAFFF7A4FFDB
:100DF000019901208840009043F61440C4F201009C
:100E0000006800990840401AB0FA80F0400904B028
:100E100080BD000080B582B000200090019000F0FD
:100E20000BF800994FF400600122FFF705FEFFE781
:100E3000FEE700000000000080B582B0FFF742FC32
:100E4000FFF798FE2D2000210191FFF74FFB01993C
:100E5000212000900122FFF781FA00980199FFF705
:100E600045FB1A20142115221323FFF7B5FC9FED33
:100E7000040BFFF7B5FD02B080BD00BF00BF00BF8F
:100E800000000000000022402DE9C04130B4DFF82E
:100E9000A8C23CEA111418BF3CEA131400F0F08019
:100EA0001CEA111481EA030544EAD57418BF1CEA50
:100EB000131500F0CB80A4EB050404F17F7404F556
:100EC00000344FF0004545EAC12145EAC32341EA19
:100ED000505143EA52534FEAC0204FEAC22299428E
:100EE00008BF904200F0A0804FEA13650FF2481649
:100EF000765D4FEA134506FB05F7C7F1807706FBE1
:100F000007F74FEAD737A7FB03687642A7FB06CE61
:100F1000C8F5803838BFA8F1010807FB08E6A6FB32
:100F2000028C4FF0000EE6FB03CED8F100086FEA0A
:100F30000C0C5CF1000C6FEA0E0E4EF1004EA6FB9D
:100F40000C584FF00007E6FB0E87A1FB08C6A0FB7C
:100F500007CE16EB0E064FF0000545F10005E1FB4C
:100F6000076515F1E04E7EBFA4F580345FEA4606C2
:100F70006D4116F1800745F100054FEA172747EA52
:100F800005674FEA15254FEA0666A6F1DE46B6F17B
:100F9000805F20D9384605EBC47124F0010C01EBC9
:100FA0000C11BCF1FE6F02D8F0BCBDE800812442F8
:100FB0005CBF01F5801E9EEAC47F02D4F0BCBDE890
:100FC0000081244200F13980A1F1C041F0BCBDE8AC
:100FD000004100F0DBB94FEAD02040EA41504FEA2F
:100FE000D1214FEAD22242EA43524FEAD323A7FB50
:100FF000028607FB036605FB02661EEA0E0F58BF5A
:10100000A6EB0056B6EB00564FEA520E4EEAC37EF0
:1010100018EB0E0E56EB530EBCD518EB02085E41D2
:101020007F1C55F10005B5E74FF480154FF0000720
:101030004FF000064FF00008ACE701F1C04101F0AD
:1010400000414FF00000F0BCBDE800810CEA131530
:1010500011EA0C1F00D00CE013EA0C1F00F02580F1
:101060004FF0000081EA030101F00041F0BCBDE84F
:101070000081F0BCBDE8004181EA030100F086B9BF
:10108000F0BCBDE8004170B500F032F9097EFC3ECD
:1010900000F007B84FF0000081EA030101F00041C1
:1010A000704781EA030100F071B9F0BCBDE800416E
:1010B00022494FF000007047FFFDFBF9F7F5F4F20D
:1010C000F0EEEDEBE9E8E6E4E3E1E0DEDDDBDAD8E3
:1010D000D7D5D4D3D1D0CFCDCCCBCAC8C7C6C5C441
:1010E000C2C1C0BFBEBDBCBBBAB9B8B7B6B5B4B358
:1010F000B2B1B0AFAEADACABAAA9A8A8A7A6A5A443
:10110000A3A3A2A1A09F9F9E9D9C9C9B9A99999806
:101110009797969595949393929191908F8F8E8EA9
:101120008D8C8C8B8B8A8989888887878685858436
:1011300084838382828181800000FF070000F87F22
:101140004FEA1153A3F58063D3F11E03A8BFD3F177
:10115000200C08DB4FF0004242EAC12252EA505212
:1011600032FA03F0704709420BD4102BC4BF0020A1
:10117000704703F5787CBCF1FF3F05D04FF0FF309E
:1011800070474FF00000704770B500F0B1F800BF35
:101190004992248000207047F0E7000070B5DFF826
:1011A00048C11CEA111E1EBF1CEA13159EEA0C0F53
:1011B00095EA0C0F00F06F8081EA03044EEAD47EBA
:1011C000AE4421EA4C1123EA4C1341F4801143F45C
:1011D0008013AEF17F7EA1FB024CA0FB03653619A4
:1011E00055EB0C05A1FB034C4CF10003A0FB021CCA
:1011F00016EB0C06654153F10003094218BF46F097
:10120000010613F4007F0BD14FEA03314FEA05309A
:1012100041EA155140EA165034036FF003020AE028
:101220004FEAC3214FEAC52041EA555140EA5650E2
:10123000F4026FF0020202EB2E4201EB025585EA46
:10124000CE710AD05FEA440C18BF24F0004450F17C
:10125000000041F1000120EAD47040F2FE7C6245BA
:1012600000D270BDA84214BF4FF080444FF04044FC
:10127000002E08BF0024BEF1806FA8BFA1F1C041BD
:10128000BDE8704080F2828001F1C04101F0004170
:101290004FF0000070470CEA13159EEA0C0F18BFC0
:1012A00095EA0C0F06D081EA030E4FF000000EF015
:1012B000004170BD00F01CF88900013E00F007B845
:1012C00000F009B84FEA430C5FEA5C5C08D081EAA1
:1012D000030100F05BB84FEA410C5FEA5C5CF6D1B9
:1012E00002494FF0000070470000FF070000F87F40
:1012F0000EF1020E2EF0030E5EF8046B364205D49A
:10130000012A43EB030515F5001F12D8012841EB14
:10131000010C1CF5001F0CD80ED14FEAD17C0CEB50
:101320004C0C0CF1020C15F5001F08BF4CEBD37CE4
:1013300004E04FF0080C01E04FEAD37C0CEB4C05C5
:1013400026FA05F606F00706B6F1040C06D20EEBF7
:10135000860CBDE870404CF0010C6047DFE80CF0F3
:10136000090B02024FF00041A1F500214FF00000EF
:1013700070BD19461046012851EB010418BFD4F581
:10138000001484BF002001F0004170BD0808A0F5E2
:1013900000114FEA31017047F1EE100A4FF6FF716C
:1013A000C0F2C03120EA010040F04070E1EE100AC6
:1013B00070470000D813000800000020A8000000BB
:1013C000FC01000880140008A8000020700600003E
:1013D0001C020008000000000024F40003000000CC
:1013E000010000000C0000000000000002000000EE
:1013F00006000000010000000300000003000000E0
:1014000002000000000000000900000007000000CA
:1014100001000000080000000000000002000000C1
:101420000C000000010000000300000004000000A8
:10143000020000000400000006000000030000009D
:10144000050000000200000004000000060000008B
:10145000030000000500000007000000010000007C
:10146000060000000000000009000000000000006D
:10147000000000000000F03F000000000000A0405D
:040000050800019955
:00000001FF
