:020000040800F2
:1000000068060020650200086D0200086F02000803
:100010007102000873020008750200080000000069
:10002000000000000000000000000000770200084F
:1000300079020008000000007B0200087D02000831
:100040007F0200087F0200087F0200087F0200088C
:100050007F0200087F0200087F0200087F0200087C
:100060007F0200087F0200087F0200087F0200086C
:100070007F0200087F0200087F0200087F0200085C
:100080007F0200087F0200087F02000800000000D5
:100090000000000000000000000000007F020008D7
:1000A0007F0200087F0200087F0200087F0200082C
:1000B0007F0200087F0200087F0200087F0200081C
:1000C0007F0200087F0200087F0200087F0200080C
:1000D0007F0200087F0200087F0200080000000085
:1000E0007F0200087F0200087F0200080000000075
:1000F0000000000000000000000000007F02000877
:10010000000000007F0200087F0200087F02000854
:1001100000000000000000000000000000000000DF
:100120007F0200087F0200087F0200087F020008AB
:100130007F02000800000000000000000000000036
:100140000000000000000000000000007F02000826
:100150007F0200087F0200087F0200087F0200087B
:100160007F0200087F02000800000000000000007D
:10017000000000000000000000000000000000007F
:10018000000000007F0200080000000000000000E6
:100190007F0200087F02000800F002F800F052F829
:1001A00014A696E8000CB244B344DA4501D100F03D
:1001B00049F8BAE80F000FA696E83000A5EB040551
:1001C00004EB0607AAEB0704A7F101074FEA151590
:1001D0004FEA3414A4F10104AC4201D300F032F828
:1001E00013F0010F18BFFB1A43F0010300F001F8F0
:1001F000DBE718474405000064050000103A24BFFF
:1002000078C878C1FAD8520724BF30C830C144BF7B
:1002100004680C6070470000704700000023002451
:1002200000250026103A28BF78C1FBD8520728BF06
:1002300030C148BF0B6070471FB500F06FFA1FBD9B
:1002400010B510BD00F031F81146FFF7F5FF00F0D2
:1002500007FA00F04FF803B4FFF7F2FF03BC00F019
:1002600057F800000948804709480047FEE7FEE7C5
:10027000FEE7FEE7FEE7FEE7FEE7FEE7FEE7FEE756
:1002800004480549054A064B70470000A9050008C7
:10029000990100086800002068060020680200201C
:1002A00068020020704770477047754600F02CF8D0
:1002B000AE4605006946534620F00700854618B053
:1002C00020B5FFF7DDFFBDE820404FF000064FF0FE
:1002D00000074FF000084FF0000BAC46ACE8C00937
:1002E000ACE8C009ACE8C009ACE8C00921F00701DE
:1002F0008D46704710B50446AFF300802046BDE838
:100300001040FFF7A8BF0000004870470800002019
:1003100001491820ABBEFEE726000200704700002E
:1003200080B584B08DF80F0002919DF90F0001A9EE
:100330006A4600F043F901980021C4F202018842A4
:1003400003D1FFE700F0E0F8FFE7019840F2004139
:10035000C4F20201884203D1FFE700F0DFF8FFE7B3
:10036000019840F60001C4F20201884203D1FFE780
:1003700000F0DEF8FFE79DF90F00029900F002F8A7
:1003800004B080BD80B584B08DF80F0002919DF956
:100390000F0001A96A4600F011F9009841000320FE
:1003A00000FA01F2019908689043086002980099E8
:1003B000490000FA01F2019908681043086004B08E
:1003C00080BD000080B584B08DF80F0002919DF9CA
:1003D0000F0001A96A4600F0F1F8009841000320DF
:1003E00000FA01F2019988689043886002980099A8
:1003F000490000FA01F2019988681043886004B04E
:1004000080BD000080B584B08DF80F0002919DF989
:100410000F0001A96A4600F0D1F80099012000FA06
:1004200001F201994868904348600298009900FAE7
:1004300001F2019948681043486004B080BD000093
:1004400080B584B08DF80F0002919DF90F0001A9CD
:100450006A4600F0B3F800984100032000FA01F268
:100460000199C8689043C86002980099490000FA51
:1004700001F20199C8681043C86004B080BD000053
:1004800080B584B08DF80F009DF90F0002A901AA74
:1004900000F094F8029800690199C84000F001004A
:1004A00004B080BD80B584B08DF80F009DF90F00B9
:1004B00002A901AA00F082F80199012000FA01F2D4
:1004C000029948695040486104B080BD80B584B04D
:1004D0008DF80F0002919DF90F0001A96A4600F006
:1004E0006DF80099012000FA01F2019948699043E2
:1004F00048610298009900FA01F201994869104395
:10050000486104B080BD000043F63001C4F202012E
:10051000086840F0010008607047000043F63001B1
:10052000C4F20201086840F0020008607047000051
:1005300043F63001C4F20201086840F0040008608C
:100540007047000043F60001C4F20201086840F061
:1005500001000860FFE743F60000C4F202000068F3
:100560008007002801D4FFE7F5E743F60801C4F24D
:100570000201086820F00300086008680860FFE7CF
:1005800043F60800C4F20200006810F00C0F01D01E
:10059000FFE7F5E740F20001C2F2000142F200403D
:1005A000C0F2F400086070474EF68851CEF20001A8
:1005B000086840F4700008607047000085B08DF84E
:1005C0001300039102929DF8130000F00F000190B8
:1005D0000198029908609DF913000011009000989D
:1005E00030B9FFE703990020C4F20200086035E04B
:1005F0000098012807D1FFE7039940F20040C4F2B8
:100600000200086029E00098022807D1FFE703995B
:1006100040F60000C4F2020008601DE000980328C4
:1006200007D1FFE7039940F60040C4F202000860DA
:1006300011E00098072807D1FFE7039941F6004031
:10064000C4F20200086005E003990020C4F2020031
:100650000860FFE7FFE7FFE7FFE7FFE705B0704748
:1006600080B584B000200090039000F023F800993A
:100670000120029040F20400C2F2000090F9000054
:10068000FFF724FFFFE72D20FFF7FAFE0190019806
:1006900068B9FFE70298012809D1FFE740F204009A
:1006A000C2F2000090F90000FFF7FCFEFFE701989E
:1006B0000290E8E780B584B0FFF744FF40F2050000
:1006C000C2F20000009090F9000000210191FFF7B4
:1006D00027FE40F20400C2F20000029090F90000F0
:1006E00001210391FFF71CFE0298039990F9000085
:1006F000FFF7A6FE0098039990F90000FFF7A0FE0F
:100700000199029890F90000FFF77CFE0298039986
:1007100090F90000FFF756FE04B080BDF1EE100A1C
:100720004FF6FF71C0F2C03120EA010040F0407086
:10073000E1EE100A70470000580700080000002092
:1007400008000000FC010008600700080800002005
:10075000600600001C0200080024F400052D0000C3
:040000050800019955
:00000001FF
