:020000040800F2
:10000000600600204902000851020008530200085F
:1000100055020008570200085902000800000000BD
:100020000000000000000000000000005B0200086B
:100030005D020008000000005F0200086102000885
:1000400063020008630200086302000863020008FC
:1000500063020008630200086302000863020008EC
:1000600063020008630200086302000863020008DC
:1000700063020008630200086302000863020008CC
:100080006302000863020008630200080000000029
:1000900000000000000000000000000063020008F3
:1000A000630200086302000863020008630200089C
:1000B000630200086302000863020008630200088C
:1000C000630200086302000863020008630200087C
:1000D00063020008630200086302000800000000D9
:1000E00063020008630200086302000800000000C9
:1000F0000000000000000000000000006302000893
:1001000000000000630200086302000863020008A8
:1001100000000000000000000000000000000000DF
:10012000630200086302000863020008630200081B
:100130006302000800000000000000000000000052
:100140000000000000000000000000006302000842
:1001500063020008630200086302000863020008EB
:1001600063020008630200080000000000000000B5
:10017000000000000000000000000000000000007F
:100180000000000063020008000000000000000002
:10019000630200086302000800F002F800F044F86F
:1001A00014A696E8000CB244B344DA4501D100F03D
:1001B0003BF8BAE80F000FA696E83000A5EB04055F
:1001C00004EB0607AAEB0704A7F101074FEA151590
:1001D0004FEA3414A4F10104AC4201D300F024F836
:1001E00013F0010F18BFFB1A43F0010300F001F8F0
:1001F000DBE71847CC030000DC0300007047000079
:100200000023002400250026103A28BF78C1FBD81F
:10021000520728BF30C148BF0B6070471FB500F0C0
:10022000C1F91FBD10B510BD00F031F81146FFF740
:10023000F5FF00F08FF900F04FF803B4FFF7F2FF7D
:1002400003BC00F057F80000094880470948004700
:10025000FEE7FEE7FEE7FEE7FEE7FEE7FEE7FEE776
:10026000FEE7FEE704480549054A064B70470000D3
:100270009D0400089901000860000020600600202D
:10028000600200206002002070477047704775468A
:1002900000F02CF8AE4605006946534620F00700F2
:1002A000854618B020B5FFF7DDFFBDE820404FF0D0
:1002B00000064FF000074FF000084FF0000BAC466F
:1002C000ACE8C009ACE8C009ACE8C009ACE8C009BA
:1002D00021F007018D46704710B50446AFF300804A
:1002E0002046BDE81040FFF7A8BF00000048704757
:1002F0000000002001491820ABBEFEE726000200E6
:100300007047000080B584B08DF80F0002919DF910
:100310000F0001A96A4600F0CBF801980021C4F251
:100320000201884203D1FFE700F070F8FFE701986F
:1003300040F20041C4F20201884203D1FFE700F01D
:100340006FF8FFE7019840F60001C4F2020188420D
:1003500003D1FFE700F06EF8FFE79DF90F00029967
:1003600000F002F804B080BD80B584B08DF80F00B5
:1003700002919DF90F0001A96A4600F099F80098D2
:100380004100032000FA01F20199086890430860D7
:1003900002980099490000FA01F201990868104397
:1003A000086004B080BD000080B584B08DF80F00F7
:1003B0009DF90F0002A901AA00F07AF802980069DD
:1003C000019901228A401040C84004B080BD00005D
:1003D00080B584B08DF80F0002919DF90F0001A93E
:1003E0006A4600F065F80099012000FA01F20199CF
:1003F0004869904348610298009900FA01F2019916
:1004000048691043486104B080BD000043F63001E4
:10041000C4F20201086840F0010008607047000063
:1004200043F63001C4F20201086840F0020008609F
:100430007047000043F63001C4F20201086840F042
:10044000040008607047000043F60001C4F2020196
:10045000086840F001000860FFE743F60000C4F2BE
:10046000020000688007002801D4FFE7F5E743F6A3
:100470000801C4F20201086820F00300086008685F
:100480000860FFE743F60800C4F20200006810F0BD
:100490000C0F01D0FFE7F5E7704700004EF68851DA
:1004A000CEF20001086840F4700008607047000058
:1004B00085B08DF81300039102929DF8130000F0AF
:1004C0000F0001900198029908609DF91300001136
:1004D0000090009830B9FFE703990020C4F20200B1
:1004E000086035E00098012807D1FFE7039940F242
:1004F0000040C4F20200086029E00098022807D1F9
:10050000FFE7039940F60000C4F2020008601DE016
:100510000098032807D1FFE7039940F60040C4F292
:100520000200086011E00098072807D1FFE703994F
:1005300041F60040C4F20200086005E00399002083
:10054000C4F202000860FFE7FFE7FFE7FFE7FFE70D
:1005500005B0704780B584B000200190039000F092
:1005600015F801980290FFE70D20FFF71DFF02909C
:10057000029828B1FFE705200021FFF729FF04E0DA
:1005800005200121FFF724FFFFE7EDE780B5FFF726
:100590005BFF0D200021FFF7B5FE05200121FFF7CD
:1005A000B1FE80BDF1EE100A4FF6FF71C0F2C0310E
:1005B00020EA010040F04070E1EE100A70470000B0
:1005C000D0050008000000206006000000020008BE
:040000050800019955
:00000001FF
