:020000040800F2
:1000000078060020650200086D0200086F020008F3
:100010007102000873020008750200080000000069
:10002000000000000000000000000000770200084F
:1000300079020008000000007B0200081D0E000885
:100040007F0200087F0200087F0200087F0200088C
:100050007F0200087F0200087F0200087F0200087C
:100060007F0200087F0200087F0200087F0200086C
:100070007F0200087F0200087F0200087F0200085C
:100080007F0200087F0200087F02000800000000D5
:100090000000000000000000000000007F020008D7
:1000A0007F0200087F0200087F0200087F0200082C
:1000B0007F020008490E00087F0200087F02000846
:1000C0007F0200087F0200087F0200087F0200080C
:1000D0007F0200087F0200087F0200080000000085
:1000E000210300087F0200087F02000800000000D2
:1000F0000000000000000000000000007F02000877
:10010000000000007F0200087F0200087F02000854
:1001100000000000000000000000000000000000DF
:100120007F0200087F0200087F0200087F020008AB
:100130007F02000800000000000000000000000036
:100140000000000000000000000000007F02000826
:100150007F0200087F0200087F0200087F0200087B
:100160007F0200087F02000800000000000000007D
:10017000000000000000000000000000000000007F
:10018000000000007F0200080000000000000000E6
:100190007F0200087F02000800F002F800F052F829
:1001A00014A696E8000CB244B344DA4501D100F03D
:1001B00049F8BAE80F000FA696E83000A5EB040551
:1001C00004EB0607AAEB0704A7F101074FEA151590
:1001D0004FEA3414A4F10104AC4201D300F032F828
:1001E00013F0010F18BFFB1A43F0010300F001F8F0
:1001F000DBE71847B0130000D0130000103A24BF0B
:1002000078C878C1FAD8520724BF30C830C144BF7B
:1002100004680C6070470000704700000023002451
:1002200000250026103A28BF78C1FBD8520728BF06
:1002300030C148BF0B6070471FB501F0A0F91FBD6A
:1002400010B510BD00F031F81146FFF7F5FF01F0D1
:10025000C7F800F04FF803B4FFF7F2FF03BC00F05B
:1002600057F800000948804709480047FEE7FEE7C5
:10027000FEE7FEE7FEE7FEE7FEE7FEE7FEE7FEE756
:1002800004480549054A064B70470000350E000832
:1002900099010008780000207806002078020020EC
:1002A00078020020704770477047754600F02CF8C0
:1002B000AE4605006946534620F00700854618B053
:1002C00020B5FFF7DDFFBDE820404FF000064FF0FE
:1002D00000074FF000084FF0000BAC46ACE8C00937
:1002E000ACE8C009ACE8C009ACE8C00921F00701DE
:1002F0008D46704710B50446AFF300802046BDE838
:100300001040FFF7A8BF0000004870471000002011
:1003100001491820ABBEFEE726000200704700002E
:1003200080B50D2001F040F868B3FFE740F204000B
:10033000C2F200000168B1FA81F149090160006868
:10034000B8B1FFE740F20800C2F2000002680EA058
:1003500000F10801002A18BF084690ED000B51EC8F
:10036000100B01F08DF800EE100A002000F08CF95F
:1003700005E000209FED080A00F086F9FFE70D2058
:1003800000F0A8FFFFE780BD000000000000E83F8C
:10039000000000000000D03F0000000080B588B0E1
:1003A0008DF81F00069105929DF91F0004A903AA6C
:1003B00000F0A8FF43F64401C4F20201086840F4CB
:1003C0008040086004980021C4F20201884203D1F1
:1003D000FFE70020029026E0049840F20041C4F2BA
:1003E0000201884203D1FFE7012002901AE004983D
:1003F00040F60001C4F20201884203D1FFE7022067
:1004000002900EE0049840F60041C4F202018842D6
:1004100003D1FFE70320029002E004200290FFE7EF
:10042000FFE7FFE7FFE7039800F003018A000F21D1
:1004300001FA02F320F0030143F60802C4F20102BC
:100440008858984388500299039800F003039B0052
:1004500001FA03F320F003018858184388500698E6
:1004600060B9FFE70399012000FA01F243F60C415D
:10047000C4F201010868104308602BE006980128C7
:100480000CD1FFE70399012000FA01F243F608417D
:10049000C4F201010868104308601AE006980228B7
:1004A00016D1FFE70399012000FA01F343F6084251
:1004B000C4F20102116819431160039900FA01F2B4
:1004C00043F60C41C4F20101086810430860FFE7DD
:1004D000FFE7FFE70399012000FA01F243F600412C
:1004E000C4F20101086810430860002001900398DD
:1004F000042804D8FFE70398063001900AE0039827
:10050000092803D8FFE71720019002E02820019076
:10051000FFE7FFE79DF90400059900F08DFE9DF9C6
:10052000040000F059FE08B080BD000080B584B022
:100530008DF80F0002919DF90F0001A96A4600F0A5
:10054000E1FE01980021C4F20201884203D1FFE7D5
:1005500000F0BCFBFFE7019840F20041C4F2020149
:10056000884203D1FFE700F0BBFBFFE7019840F6AC
:100570000001C4F20201884203D1FFE700F0BAFB98
:10058000FFE79DF90F00029900F002F804B080BD6A
:1005900080B584B08DF80F0002919DF90F0001A97C
:1005A0006A4600F0AFFE00984100032000FA01F215
:1005B000019908689043086002980099490000FA80
:1005C00001F2019908681043086004B080BD000082
:1005D00080B584B08DF80F0002919DF90F0001A93C
:1005E0006A4600F08FFE0099012000FA01F201999D
:1005F0004868904348600298009900FA01F2019916
:1006000048681043486004B080BD000080B584B0E5
:100610008DF80F0002919DF90F0001A96A4600F0C4
:1006200071FE00984100032000FA01F20199C868A8
:100630009043C86002980099490000FA01F20199BC
:10064000C8681043C86004B080BD000080B584B0A5
:100650008DF80F0002919DF90F0001A96A4600F084
:1006600051FE0099012000FA01F201994869904376
:1006700048610298009900FA01F201994869104313
:10068000486104B080BD000080B58AB08DF82700B5
:100690008DED080A9DF9270007A906AA00F032FE91
:1006A0009DF9270005A904AA00F002FA0598C06A7E
:1006B00003900398013000EE100AB8EE400A9DED59
:1006C000081A20EE010AB7EE001A30EE010ABCEE5D
:1006D000C00A8DED020A04980138014601910328F1
:1006E00014D80199DFE801F002060A0E0298059974
:1006F00048630CE002980599886308E00298059920
:10070000C86304E002980599086400E0FFE70AB0B6
:1007100080BD000080B586B08DF817009DF91700E8
:1007200004A903AA00F0EEFD9DF9170002A901AA91
:1007300000F0BEF99DF917000221FFF7F7FE9DF9C1
:1007400017000021FFF744FF9DF917000121FFF773
:100750005DFF0398072866D8FFE70398810007200C
:1007600000FA01F20499086A904308620298002195
:10077000C4F20101884205D0FFE70298B0F1804F32
:100780000AD1FFE703988100012000FA01F20499E1
:10079000086A1043086245E0029840F20041C4F242
:1007A0000001884210D0FFE7029840F60001C4F231
:1007B0000001884208D0FFE7029840F60041C4F2E9
:1007C000000188420AD1FFE703988100022000FA65
:1007D00001F20499086A1043086222E0029844F288
:1007E0000001C4F20101884210D0FFE7029844F2F0
:1007F0000041C4F20101884208D0FFE7029844F6A4
:100800000001C4F2010188420AD1FFE70398810088
:10081000032000FA01F20499086A10430862FFE716
:10082000FFE7FFE76EE003988100072000FA01F27E
:100830000499486A9043486202980021C4F2010179
:10084000884205D0FFE70298B0F1804F0DD1FFE755
:1008500003996FF01F0000EB8101012000FA01F203
:100860000499486A104348624BE0029840F2004104
:10087000C4F20001884210D0FFE7029840F6000160
:10088000C4F20001884208D0FFE7029840F6004118
:10089000C4F2000188420DD1FFE703996FF01F00F9
:1008A00000EB8101022000FA01F20499486A10432A
:1008B000486225E0029844F20001C4F20101884236
:1008C00010D0FFE7029844F20041C4F201018842CF
:1008D00008D0FFE7029844F60001C4F20101884203
:1008E0000DD1FFE703996FF01F0000EB810103209A
:1008F00000FA01F20499486A10434862FFE7FFE7F3
:10090000FFE7FFE70298012100F062FB0299086807
:1009100020F0010008600299086820F010000860CB
:100920000298C06A40080090019801281DD1FFE795
:100930000299886920F0700088610299886940F006
:10094000600088610299886940F008008861009819
:10095000029948630299086A20F00200086202992D
:10096000086A40F0010008626AE0019802281DD17F
:10097000FFE70299886920F4E0408861029988695C
:1009800040F4C04088610299886940F40060886141
:100990000098029988630299086A20F02000086292
:1009A0000299086A40F01000086248E001980328A4
:1009B00022D1FFE70299C86920F07000C86102994E
:1009C000C86920F07000C8610299886940F0600031
:1009D00088610299886940F008008861009802994E
:1009E000C8630299086A20F4007008620299086AD4
:1009F00040F48070086221E0019804281DD1FFE7CF
:100A00000299C86920F4E040C8610299C86940F4BD
:100A1000C040C8610299C86940F40060C86100988C
:100A2000029908640299086A20F400500862029949
:100A3000086A40F480500862FFE7FFE7FFE7FFE73E
:100A400002980021C4F20101884206D1FFE7029911
:100A5000486C40F400404864FFE70299086840F0A1
:100A60000100086006B080BD80B582B08DF8070037
:100A700000919DF90700009900F002F802B080BDD6
:100A800080B586B08DF8170004919DF9170003A971
:100A900002AA00F037FC9DF9170001A96A4600F090
:100AA00007F80198049900F033FB06B080BD000000
:100AB00080B588B08DF81F00069105929DF91F0042
:100AC00004A903AA00F01EFC04980021C4F202014C
:100AD000884256D1FFE7039802900F284FD8029919
:100AE000DFE801F008104D4D4D18204D2A333C4DE4
:100AF0004D4D4D4506994FF0804008600599012005
:100B000008603DE006994FF080400860059902209A
:100B1000086035E006994FF0804008600599012093
:100B200008602DE0069940F20040C4F20000086021
:100B300005990120086023E006990020C4F2010015
:100B400008600599012008601AE006990020C4F2A7
:100B50000100086005990220086011E00699002054
:100B6000C4F20100086005990320086008E00699B6
:100B70004FF08040086005990120086000E0FFE721
:100B8000A1E0049840F20041C4F2020188425BD126
:100B9000FFE70398033801460191072852D80199CD
:100BA000DFE801F0040C16202A343E4806994FF085
:100BB0008040086005990220086044E0069940F2F0
:100BC0000040C4F2000008600599012008603AE086
:100BD000069940F20040C4F2000008600599022026
:100BE000086030E0069940F60000C4F2000008609A
:100BF00005990120086026E0069940F60000C4F23D
:100C0000000008600599022008601CE0069940F683
:100C10000000C4F20000086005990320086012E09B
:100C2000069940F60000C4F200000860059904200F
:100C3000086008E006994FF080400860059903209D
:100C4000086000E0FFE73DE0049840F60001C4F2D0
:100C50000201884235D1FFE703980638014600912A
:100C600003282CD80099DFE801F0020C1620069921
:100C700040F20040C4F200000860059901200860BD
:100C80001EE0069940F20040C4F200000860059999
:100C90000220086014E0069940F20040C4F200000F
:100CA00008600599032008600AE0069940F20040B8
:100CB000C4F20000086005990420086000E0FFE726
:100CC000FFE7FFE7FFE708B080BD000043F6300113
:100CD000C4F20201086840F001000860704700009B
:100CE00043F63001C4F20201086840F002000860D7
:100CF0007047000043F63001C4F20201086840F07A
:100D0000040008607047000081B043F60041C4F25F
:100D10000201086820F007000860086840F002003F
:100D2000086043F60001C4F20201086840F00100C7
:100D30000860FFE743F60000C4F202000068800785
:100D4000002801D4FFE7F5E743F60001C4F20201F1
:100D5000086820F08070086043F60402C4F20202C2
:100D60000092106820F48000106010681060106815
:100D7000542363F38E1010601068082363F305009A
:100D80001060106820F440301060086840F08070F7
:100D90000860FFE743F60000C4F20200006800F0BC
:100DA00000710020B0EB516F01D0FFE7F2E743F68E
:100DB0000801C4F20201086820F003000860086816
:100DC00040F002000860FFE743F60800C4F20200AA
:100DD000006800F00C00082801D0FFE7F4E743F6B4
:100DE0000801C4F20201086820F0F00008600868F9
:100DF00020F4E0500860086840F4805008600868FB
:100E000020F46040086040F20001C2F200014BF69D
:100E10000050C0F20150086001B0704780B500F08A
:100E200001F880BD40F27401C2F20001086801308F
:100E3000086070474EF68851CEF20001086840F411
:100E4000700008607047000080B582B040F2040076
:100E5000C2F200000068A0B3FFE740F27000C2F2E7
:100E600000000168013101600068042828D1FFE713
:100E700040F20800C2F20000006801280DD1FFE72F
:100E800000200190B6EE080AFFF7FEFB019840F241
:100E90000801C2F2000108600BE00020B5EE000A74
:100EA000FFF7F2FB40F20801C2F2000101200860E6
:100EB000FFE740F27001C2F2000100200860FFE786
:100EC000FFE740F20040C4F2000000F0F9F902B080
:100ED00080BD000081B000900099C86840F001001A
:100EE000C86001B07047000080B584B003900291E3
:100EF0000398029900F06CF80398FFF7EBFF0020CD
:100F0000019003980021C4F20101884203D1FFE758
:100F10001920019050E00398B0F1804F03D1FFE712
:100F20001C20019047E0039840F20041C4F2000108
:100F3000884203D1FFE71D2001903BE0039840F673
:100F40000001C4F20001884203D1FFE71E20019096
:100F50002FE0039840F60041C4F20001884203D11B
:100F6000FFE73220019023E0039844F20001C4F22D
:100F70000101884203D1FFE71820019017E0039890
:100F800044F20041C4F20101884203D1FFE7192075
:100F900001900BE0039844F60001C4F2010188427D
:100FA00003D1FFE71A200190FFE7FFE7FFE7FFE724
:100FB000FFE7FFE7FFE7FFE79DF9040000F024F9F2
:100FC0009DF90400022100F059F904B080BD000031
:100FD00080B582B00190009101980021C4F2010116
:100FE000884209D1FFE743F64401C4F202010868D0
:100FF00040F0010008607AE00198B0F1804F09D11B
:10100000FFE743F64001C4F20201086840F0010026
:1010100008606BE0019840F20041C4F20001884290
:1010200009D1FFE743F64001C4F20201086840F02D
:101030000200086059E0019840F60001C4F2000186
:10104000884209D1FFE743F64001C4F20201086873
:1010500040F00400086047E0019840F60041C4F207
:101060000001884209D1FFE743F64001C4F20201C2
:10107000086840F00800086035E0019844F200017B
:10108000C4F20101884209D1FFE743F64401C4F2EA
:101090000201086840F48030086023E0019844F2BF
:1010A0000041C4F20101884209D1FFE743F644013F
:1010B000C4F20201086840F40030086011E00198B1
:1010C00044F60001C4F20101884209D1FFE743F66A
:1010D0004401C4F20201086840F480200860FFE780
:1010E000FFE7FFE7FFE7FFE7FFE7FFE7FFE701981D
:1010F000009900F00DF80199086820F010000860D0
:101100000199086840F00100086002B080BD00004D
:1011100086B00590049143F60800C4F2020000680E
:101120008007002806D5FFE74BF60050C0F20150BB
:1011300002900EE043F60800C4F2020000680020AE
:1011400030B9FFE742F20040C0F2F4000290FFE73E
:10115000FFE70598B0F1804F08D0FFE7059840F60B
:101160000041C4F20001884219D1FFE7029840090A
:1011700045F6C521C0F67C21A0FB0110C009ADF8E1
:101180000E000498642148430190BDF80E00013818
:1011900005998862019801380599C8621AE0029899
:1011A000400945F6C521C0F67C21A0FB0110C0090D
:1011B000ADF80E00049864214843ADF80200BDF874
:1011C0000E00013805998862BDF8020001380599C2
:1011D000C862FFE706B0704781B08DF803009DF943
:1011E000030000280ED4FFE79DF9031001F01F0251
:1011F000012090404A094EF20011CEF2000141F860
:101200002200FFE701B0704781B08DF803009DF91F
:10121000030000280ED4FFE79DF9031001F01F0220
:10122000012090404A094EF20011CEF2000141F82F
:101230002200FFE701B0704782B08DF807000091EF
:101240009DF9070000280AD4FFE7009800019DF9E6
:1012500007104EF20042CEF2000288540BE00098D4
:1012600000019DF8071001F00F014EF61452CEF266
:1012700000028854FFE702B07047000082B08DF88A
:10128000070000919DF9070000280AD4FFE70098A5
:1012900000019DF907104EF20042CEF20002885480
:1012A0000BE0009800019DF8071001F00F014EF6C9
:1012B0001452CEF200028854FFE702B070470000DB
:1012C00081B000900099086920F00100086101B028
:1012D0007047000080B584B08DF80F009DF90F00B5
:1012E00002A901AA00F00EF80199012000FA01F20A
:1012F00043F61441C4F2010108681043086004B0C9
:1013000080BD000085B08DF81300039102929DF816
:10131000130000F00F0001900198029908609DF9F8
:10132000130000110090009830B9FFE703990020E6
:10133000C4F20200086035E00098012807D1FFE7F9
:10134000039940F20040C4F20200086029E00098CE
:10135000022807D1FFE7039940F60000C4F202001B
:1013600008601DE00098032807D1FFE7039940F6C5
:101370000040C4F20200086011E00098072807D17D
:10138000FFE7039941F60040C4F20200086005E05F
:1013900003990020C4F202000860FFE7FFE7FFE7BF
:1013A000FFE7FFE705B0704780B584B08DF80F0008
:1013B0009DF90F0002A901AAFFF7A4FF01990120DE
:1013C0008840009043F61440C4F201000068009980
:1013D0000840401AB0FA80F0400904B080BD000017
:1013E00080B582B00020019000F002F8FFE7FEE730
:1013F00080B584B0FFF788FC002002900221FFF73F
:1014000095F802990846FFF7E3F802980121039145
:10141000FFF7FCF803990B200090FFF787F800987E
:101420000299FFF7D5F800980299FFF7EFF80098B6
:101430000399FFF70BF902992D200190FFF776F839
:1014400001980399FFF7E2F80298FFF763F9029811
:101450000399FFF709FB0298B5EE000AFFF714F9AC
:1014600040F20040C4F200004FF4FA71FFF73CFD77
:1014700001980299039AFEF791FF04B080BD000025
:1014800021F0004201F00043A2F16052B2F5801F4A
:1014900028BFD2F17F6C0BD95FEA001C43EAC2027D
:1014A00042EB507018BF704728BF20F00100704712
:1014B000B2F5801FBCBF184670474FEA410C1CF5BF
:1014C000001F02D2084600F067B870B500F009F8B6
:1014D00000000089FFF7F6BF4FF00040A0F5800044
:1014E00070470EF1020E2EF0030E5EF8046B3642CA
:1014F00005D4012A43EB030515F5001F12D8012876
:1015000041EB010C1CF5001F0CD80ED14FEAD17C29
:101510000CEB4C0C0CF1020C15F5001F08BF4CEB4A
:10152000D37C04E04FF0080C01E04FEAD37C0CEBD5
:101530004C0526FA05F606F00706B6F1040C06D2AD
:101540000EEB860CBDE870404CF0010C6047DFE804
:101550000CF0090B02024FF00041A1F500214FF001
:10156000000070BD19461046012851EB010418BF58
:10157000D4F5001484BF002001F0004170BDF1EEED
:10158000100A4FF6FF71C0F2C03120EA010040F0AE
:101590004070E1EE100A7047FF2141EAD050C005CB
:1015A00070470000C815000800000020100000006F
:1015B000FC010008D8150008100000206806000093
:1015C0001C020008000000000024F40001000000DC
:0815D0001900000000000000FA
:040000050800019955
:00000001FF
