:020000040800F2
:100000003808002051030008590300085B0300086A
:100010005D0300085F0300086103000800000000A2
:100020000000000000000000000000006303000862
:100030006503000800000000670300087131000834
:100040006B0300086B0300086B0300086B030008D8
:100050006B0300086B0300086B0300086B030008C8
:100060006B0300086B0300086B0300086B030008B8
:100070006B0300086B0300086B0300086B030008A8
:100080006B0300086B0300086B030008000000000E
:100090000000000000000000000000006B030008EA
:1000A0006B0300086B0300086B0300086B03000878
:1000B0006B030008F93100086B0300086B030008AC
:1000C0006B0300086B0300086B0300086B03000858
:1000D0006B0300087D3900086B0300080000000076
:1000E0006B0300086B0300086B03000800000000AE
:1000F0000000000000000000000000006B0300088A
:10010000000000006B0300086B0300086B0300088D
:1001100000000000000000000000000000000000DF
:100120006B0300086B0300086B0300086B030008F7
:100130006B03000800000000000000000000000049
:100140000000000000000000000000006B03000839
:100150006B0300086B0300086B0300086B030008C7
:100160006B0300086B0300080000000000000000A3
:10017000000000000000000000000000000000007F
:10018000000000006B0300080000000000000000F9
:100190006B0300086B03000800F002F800F0C8F8D9
:1001A00014A696E8000CB244B344DA4501D100F03D
:1001B000BFF8BAE80F000FA696E83000A5EB0405DB
:1001C00004EB0607AAEB0704A7F101074FEA151590
:1001D0004FEA3414A4F10104AC4201D300F0A8F8B2
:1001E00013F0010F18BFFB1A43F0010300F001F8F0
:1001F000DBE71847885F0000A85F00000A444FF063
:10020000000C10F8013B13F0070408BF10F8014B75
:100210001D1108BF10F8015B641E05D010F8016BBA
:10022000641E01F8016BF9D113F0080F1EBF10F81E
:10023000014BAD1C0C1B09D16D1E58BF01F801CB41
:10024000FAD505E014F8016B01F8016B6D1EF9D5C4
:100250009142D6D37047000070470000002300246D
:1002600000250026103A28BF78C1FBD8520728BFC6
:1002700030C148BF0B6070476E2900F04181702982
:1002800000F08382662905F06886652905F0658699
:10029000672905F06286612905F0618603681B0AFB
:1002A00028BF41F08001692900F0EE80642900F048
:1002B000EB80752900F0E8806F2900F01182782921
:1002C00000F04F82E92900F0AB81E42900F0A88119
:1002D000F52900F0A581EF2900F00E82F82900F041
:1002E0004E820368DB0928BF41F08001632900F0DA
:1002F0004F87732900F05487E32900F05F87F329C3
:1003000000F06487002070471FB505F014FE00F070
:10031000B3FF04000020002105F064FA401C606077
:100320000020002105F048FAE0601FBD10B510BDA7
:1003300000F074FF1146FFF7E7FF04F0A5FD01F0A0
:1003400051F803B4FFF7F2FF03BC01F097F8000087
:100350000948804709480047FEE7FEE7FEE7FEE759
:10036000FEE7FEE7FEE7FEE7FEE7FEE70448054995
:10037000054A064B70470000E53100089901000866
:1003800038020020380800203804002038040020FB
:100390000FB41CB5084B06AA7B446946009005982B
:1003A00000F0C7F804460020694600F0D5F8204662
:1003B0001CBC5DF814FB0000BD01000070477047D5
:1003C000704770B5044685690068C10601D53026BE
:1003D00000E02026C00707D070BDD4E901213046D7
:1003E0009047206A401C20626D1EF6D570BD70B526
:1003F000044685690078C00707D170BDD4E90121A2
:1004000020209047206A401C20626D1EF6D570BDEA
:1004100009684A0501D540B27047C905FCD500B24C
:10042000704709684A0501D5C0B27047C905FCD5B7
:1004300080B2704770B50C460546012A05D0287871
:10044000800600D5EA69002302E0012305E05B1C79
:10045000934202D2E05C0028F9D1A869E618C01ADC
:10046000A861286A184428622846FFF7AAFF04E01A
:10047000D5E9012114F8010B9047B442F8D328467E
:10048000FFF7B5FF70BD00002DE9F04106460024DE
:1004900010687529314616A510D0FFF7B9FF00285E
:1004A00002DA404213A507E031688A0701D512A598
:1004B00002E0490704D511A5012401E0FFF7B1FFCF
:1004C00000210A2206F1240709E0B0FBF2FCB0FB90
:1004D000F2F302FB1C00303078541846491C002807
:1004E000F3D123462A463046BDE8F04100F061BA18
:1004F000000000002D0000002B0000002000000084
:1005000011680268006A530501D508700AE0D30536
:1005100001D5088006E0130603D5C217C1E9000221
:1005200000E008600120704701694A1C02610878F8
:10053000704700B58FB0CDE9013100210591054923
:100540007944CDE903101146684600F029F90FB04F
:1005500000BD0000E5FFFFFF0A6802F8010B0A601A
:10056000704700002DE9FF5F15468A460446DFF814
:10057000AC80F8440027D8E900103E46CDE90010D1
:1005800010E03AF816106A4602A800F023FE411C5B
:1005900007D02178890603D5E269391891420DD830
:1005A0000744761C2078800602D5E069B84205DD54
:1005B000AE42E6DB3AF816000028E2D1A069C01B83
:1005C000A0612046FFF7FDFED8E90010CDE900103C
:1005D000002017E03AF818106A4602A800F0FAFD69
:1005E000B0F1FF3F81460BD000250DF1080B05E06F
:1005F000D4E901211BF8050090476D1C4D45F7D348
:1006000008F10100B0428046E4DB206A38442062F1
:100610002046FFF7ECFEBDE8FF9F0000EE5900000A
:100620002DE9F0418046D21D22F007020025D2E9D3
:100630000002F52915A614D0011E72F1000106DA98
:100640000023D0EB030063EB020211A608E0D8F808
:1006500000108B0701D50FA602E0490701D50EA6B1
:1006600001251146002408F1240704E000F05CF99C
:1006700030323A55641C50EA0102F7D12B4632461B
:1006800021464046BDE8F04100F093B9000000006B
:100690002D0000002B0000002000000030B40021DD
:1006A00000F1240408E002F00705D208303542EAE0
:1006B0004372DB086554491C52EA0305F3D1046810
:1006C000002310A2250708D504F020040C4304D011
:1006D000C46901230CA2641EC46130BC00F069B976
:1006E00010B5044621461068FFF79BFE02462046DF
:1006F000BDE810400023D1E7D21D22F00701D1E967
:100700000023CBE70000000030000000F0B40D46ED
:100710000188090502D5214C7C4402E01F4C7C4431
:100720000E34002100F1240608E002F00F07120940
:10073000E75D42EA03721B097754491C52EA03073A
:10074000F3D102780023120704D5702D06D009B129
:10075000022311342246F0BC00F02BB901231034DF
:10076000F8E770B504460D4621461068FFF759FEBC
:10077000024629462046BDE870400023C6E7D21D48
:1007800022F00703D3E90023C0E70368126843F0AF
:10079000200303600823C3610023B7E7505800001B
:1007A0002DE9F05F894604464FF0000ADFF874B186
:1007B000FB44C0F820A02046E1688847002874D098
:1007C000252806D0D4E901219047206A401C2062E8
:1007D000F1E700265F462046E16888472028054665
:1007E00007DB312D05D2781910F8200C08B106432B
:1007F000F1E7B00701D526F00406C4F81CA00027D5
:10080000C4F818A02A2D09D0284604F0CDFF38B32B
:1008100004EB8708303DC8F8185019E059F8041B5C
:10082000204604EB87029161E1688847012F054665
:1008300018D1E069002820DA26F020061DE0D8F85B
:10084000180000EB800005EB40003038C8F81800B5
:100850002046E1688847054604F0A6FF0028EED14F
:10086000012F0AD02E2D08D12046E16888477F1C31
:100870000546022F46F02006C4DBA069002803DAF3
:10088000404246F00106A061F00701D026F01006B4
:100890006C2D0BD0682D09D04C2D39D06A2D35D058
:1008A000742D35D07A2D33D016E038E0E1682F462C
:1008B00020468847B842054609D16C2F26D04FF410
:1008C0008060E168064320468847054604E06C2FB7
:1008D0001AD04FF4807006430DB3A5F141001928DA
:1008E00002D8203546F400664A462946204626604E
:1008F0004E46FFF7C1FC80B101280BD0F61D26F053
:10090000070000F1080956E74020E4E78020D8E717
:100910000020D6E706F104094DE7284652E7206A91
:10092000BDE8F09FE057000030B5B0F10A0271F168
:1009300000034FEA900E4EEA817EB0EB0E0061EBB1
:1009400091014FEA101E4EEA017E10EB0E0041EBC2
:1009500011114FEA102E4EEA016E10EB0E0041EB22
:1009600011214FEA104E4EEA014E10EB0E0041EB02
:100970001141401841F100014FEAD00040EA4170B6
:100980004FEAD1014FEA810444EA907410EB8005EC
:1009900044EB01046D1944EB0404521BA3414FF0D6
:1009A000000348BF0A3200D530BD401C41F10001B0
:1009B00030BD2DE9F0470D4699469246044600F1B8
:1009C00024080168880604D5E06921F0100121603F
:1009D00000E00120A84201DD471B00E00027A169DB
:1009E0007A1902EB0900081AA0612078C00602D427
:1009F0002046FFF7E6FC002608E0D4E901211AF8BA
:100A000006009047206A401C761C20624E45F4DBAD
:100A10002078C0060AD52046FFF7D3FC06E0D4E9CB
:100A2000012130209047206A401C2062381EA7F127
:100A30000107F4DC07E0D4E9012118F8050090472C
:100A4000206A401C2062281EA5F10105F3DC204627
:100A5000FFF7CDFC2078000602D50220BDE8F08724
:100A60000120FBE72DE9FF4F0C461E464FF0FF37F4
:100A70008BB0D2E90001DDF860800A908A46C1F3AC
:100A80000A5505B93D46002108464FF00000BAF16D
:100A9000000F00F4400005DA00EB80004FF4400145
:100AA00001EA50004FEA9059B9F1010F00DDB94653
:100AB0000A9850EA4A000ED044F61050A5F2FF35CD
:100AC00045432F14B8F1000F1ED07542291E1EDDBC
:100AD000C9F100021CE0B8F1010F4FF0000001D095
:100AE000302103E0F24305E02154401CB042FBDB1F
:100AF00030460022002121540B99C1F80880C1E939
:100B000000200FB0BDE8F08FBD1B6D1CDEE74A462C
:100B100000DA694206A800F0F3FB06AB93E8070091
:100B200003AB83E8070050460A9904F0EBF98DE81F
:100B30000700A0F500501F3800900398002D0ADD33
:100B400042F21F014A460844002303A90390684665
:100B500004F054FC09E0A0F500504A461F38002379
:100B600003A90390684604F05EFC8DE807000004CA
:100B7000000C03D04FF0FF30410800E01046B8F100
:100B8000000F03D00022009215461EE0751E05D40A
:100B9000FFF7CAFE303262556D1EF9D5B346012209
:100BA000084302D000227F1C04E02078302801D1C5
:100BB00000227F1E002A099784D01DE0112D07DA3C
:100BC000FFF7B2FE303262556D1C50EA0102F5D1DA
:100BD000084302D00098C8B10EE00021681E05E06D
:100BE000235C625C63542254401E491C8142F7DB43
:100BF000AB46A81B401E0990002004F80B000B9880
:100C0000099AC0F80880C0E9002B7AE711264FF056
:100C1000000857E72DE9F04F88460446D21D22F020
:100C2000070191B0D1E90001CDE90A0104F032FDDC
:100C300002460B98C00F01D02D2007E020688107E5
:100C400001D52B2002E0202101EAC000032A0990EF
:100C500001D0072A05DB03464146204600F010FB81
:100C60000BE12078800601D5E06900E00620B8F1AC
:100C7000650F814606D0B8F1660F18D0B8F1670F3E
:100C800070D131E00020B9F1110F009001DB112388
:100C900001E009F101030AAA01A90CA8FFF7E2FE8D
:100CA000DDE90C70002609F10105834647E00120CB
:100CB0004B4600904FF000470AAA01A90CA8FFF785
:100CC000D1FEDDE90DB00C995D46002610B909F1A1
:100CD00001000D18B9EB050003D4C0F1FF3609F18E
:100CE0000105A5EB09002BE0B9F1010F01DA4FF086
:100CF00001090020B9F1110F0090484601DD1123D0
:100D000000E003460AAA01A90CA8FFF7ABFEDDE943
:100D10000C704D4600268346207800070AD4AB4568
:100D200000DA5D4601A8012D04DD411911F8011C0E
:100D3000302907D04F4502DA17F1040F04DA0120F9
:100D400082460FE06D1EEEE7002F02DCED1B3E44F5
:100D500003E0781CA84200DD7D1CB81B00F1010AED
:100D60004FF000472078000703D4AA4501DB4FF07D
:100D7000FF3A0021B7F1004F0DF143088DF8431001
:100D800024D002202B23002F01DA7F422D230A21B9
:100D9000021EA0F1010000DC5FB197FBF1FC97FBA4
:100DA000F1F201FB1C7C17460CF1300C08F801CD68
:100DB000EEE7A8F1010003702188090501D545215E
:100DC00000E06521A0F1010800F8011C09980FA9B5
:100DD000A1EB0807FF1D00B10120411901EBEA70EA
:100DE000A1693844081A401EA0612078C00602D4C8
:100DF0002046FFF7E6FA099828B1D4E90121904787
:100E0000206A401C20622078C00622D52046FFF7C9
:100E1000D8FA1EE0002E04DBB34502DD01A8805D98
:100E200000E03020D4E901219047206A401C206274
:100E3000761CAAF101005FEA000A0AD100F01CFA50
:100E4000C0680168405CD4E901219047206A401CD9
:100E50002062281EA5F10105DCDC07E0D4E90121B0
:100E600018F8010B9047206A401C2062381EA7F139
:100E70000107F3DC2046FFF7BAFA032011B041E680
:100E80002DE9F04F04460D46D21D22F0070089B02F
:100E9000D0E900974846394604F0FCFB0246F80FBB
:100EA00001D02D2307E02068810701D52B2302E024
:100EB000202101EAC0038DF820300BB1012000E0B1
:100EC0000020032A824601D0072A04DB2946204657
:100ED00000F0D6F93FE12078800601D40D2500E02E
:100EE000E569C7F30A560D2D49DA00214FEA175B71
:100EF00008464FF00000002F00F4400007DA00EB36
:100F000080004FF4400100EBD07001EA60008115D1
:100F1000012901DD4FF0FF3100224FEA850CBCF1C1
:100F2000180F06D31346ACF118004FF08052C240A0
:100F300003E04FF4801323FA0CF30CF10C0CBCF11A
:100F4000200F04D3ACF1200C09FA0CF001E007FAF1
:100F50000CF000294FF0004801DD18B90FE00ED168
:100F600040450CD319EB02095F4121B9404502D13C
:100F70009F4329EA0209BBEB175F00D0761C20884B
:100F8000000502D57B48784402E07A487844193855
:100F900008AA302302F80A30037C0AF10101002E6E
:100FA0000AF1020A53546A4602DC4FF0300101E0B4
:100FB0004FF031014FF001088DF8001002D0A6F279
:100FC000FF3603E059EA470100D06B4E002D02DCEA
:100FD0002178090704D54FF002082E218DF8011061
:100FE000C44600210BE0C7F303433F01C35C491C27
:100FF0006D1E02F80830052908F1010801DA002DFC
:10100000F1DC00210CE000EB1973491C1B786D1E0C
:10101000082902F808304FEA091908F1010801DA35
:10102000002DF0DC21688B0602D516E0A8F101083E
:10103000E04505DD02EB080313F8013C302BF5D049
:10104000B8F1000F09DD02EB080313F8013C2E2B69
:1010500003D1090701D4A8F10108002D05DD3E21C7
:1010600002F808106D1E08F10108407C002E02F8FD
:10107000080008F1010804DA2D20764202F8080081
:1010800002E02B2002F808000A214FF47A70864211
:1010900008F101080BDB96FBF0F3303302F808305F
:1010A00096FBF0F308F1010800FB136601E0642EE3
:1010B0000CDB642096FBF0F3303302F8083096FB2B
:1010C000F0F308F1010800FB136601E00A2E06DBCD
:1010D00096FBF1F0303002F8080008F1010896FBA9
:1010E000F1F001FB1060303002F80800A16908F14E
:1010F000010808EB050202EB0A00081AA06120783B
:10110000C00602D42046FFF75CF9216A08AE01EB65
:101110000A00206204E0D4E9012116F8010B90478F
:10112000BAF1010AF7D22078C00602D52046FFF7AF
:1011300048F96E4609E016F8010B3E280FD0D4E9B5
:1011400001219047206A401C2062B8F10108F2D2C8
:101150002046FFF74CF909B00320BDE8F08F206A64
:101160002844206203E0D4E90121302090476D1E1D
:10117000EBD3F8E72E50000002FCFFFF10B54369E7
:1011800013B1AFF3008001E0FFF754F9012010BD67
:10119000127800F124010A7000224A700122EDE762
:1011A00011684FF0FF32E9E710B5436913B1AFF3AF
:1011B000008001E0FFF7D6F9012010BD128800F190
:1011C000240182840022C2840122EDE711684FF0DD
:1011D000FF32E9E72DE9F04116460C46054600F0DE
:1011E00043F8036893F80101012807D0FF2C12D8B7
:1011F000185D80B101202C70BDE8F081D3F80701A3
:101200003246214603F20713C7182846BC46BDE8FC
:10121000F041002360474FF0FF30EDE7754600F0E6
:10122000EBF8AE4605006946534620F007008546B8
:1012300018B020B5FFF79AF8BDE820404FF000063F
:101240004FF000074FF000084FF0000BAC46ACE841
:10125000C009ACE8C009ACE8C009ACE8C00921F09D
:1012600007018D467047000010B500F005F8001D1D
:1012700010BD00BF7145000000487047800100208C
:101280002DE9F0411F46044603260168072A01F4B0
:10129000006004DB08B116A505E016A503E008B15F
:1012A00015A500E015A521F010002060A069C01E62
:1012B000A0610FB1401EA0612046FFF782F84FB138
:1012C000D4E9012138469047206A401C2062C01CA6
:1012D000206206E0206AFAE7D4E9012115F8010B43
:1012E0009047761EF8D22046FFF781F8BDE8F081DE
:1012F0004E414E006E616E00494E4600696E6600BA
:101300002DE9F047814616468AB0354878440DC825
:101310008DE80D0032487844801C03AC0DC884E889
:101320000D0041F69B300844372190FBF1F290FB11
:10133000F1F5A5F1800501FB12041B3C02D56442C6
:10134000012000E00020DFF898A080460027FA4442
:10135000AAF1BE0A0EE0E0070AD03246684607EB63
:10136000470101230AEB810104F05DF88DE80700D5
:1013700064107F1C002CEED1194F7F44AE3F19E062
:10138000E80715D007EB04100DF1180A90E80E00DD
:101390008AE80E00C068F04201D1981908903246E0
:1013A000012306A903A804F03EF803AB83E8070075
:1013B0006D10641C002DE3D14FF0010332466946E5
:1013C000B8F1000F03A802D004F018F801E004F00F
:1013D0002AF8C9E90001C9F808200AB0BDE8F08779
:1013E000384D000010B50446AFF300802046BDE83C
:1013F0001040FEF7A6BF00000048704760010020C3
:1014000030B44FF0013C50F8042B51F8043BCCFAB7
:1014100052F4D51A20D1FCB950F8042B51F8043BF2
:10142000CCFA52F4D51A17D1B4B950F8042B51F8AC
:10143000043BCCFA52F4D51A0ED16CB950F8042BF7
:1014400051F8043BCCFA52F4D51A05D1002CDAD06D
:1014500030BC4FF00000704729BAB1FA81F111F0A9
:101460001801D1F120008440F2D1CA40CB4012F0E3
:10147000FF0213F0FF0330BCD01A70470149182057
:10148000ABBEFEE7260002007047000080B584B0C6
:101490008DF80F0002919DF90F0001A96A4603F033
:1014A00089FC01980021C4F20201884203D1FFE7C0
:1014B00000F0DCFBFFE7019840F20041C4F20201BA
:1014C000884203D1FFE700F0DBFBFFE7019840F61D
:1014D0000001C4F20201884203D1FFE700F0DAFB09
:1014E000FFE79DF90F00029900F002F804B080BDFB
:1014F00080B584B08DF80F0002919DF90F0001A90D
:101500006A4603F057FC00984100032000FA01F2FC
:10151000019908689043086002980099490000FA10
:1015200001F2019908681043086004B080BD000012
:1015300080B584B08DF80F0002919DF90F0001A9CC
:101540006A4603F037FC00984100032000FA01F2DC
:10155000019988689043886002980099490000FAD0
:1015600001F2019988681043886004B080BD0000D2
:1015700080B584B08DF80F0002919DF90F0001A98C
:101580006A4603F017FC0099012000FA01F2019964
:101590004868904348600298009900FA01F2019966
:1015A00048681043486004B080BD000080B584B036
:1015B0008DF80F0002919DF90F0001A96A4603F012
:1015C000F9FB00984100032000FA01F20199C86874
:1015D0009043C86002980099490000FA01F201990D
:1015E000C8681043C86004B080BD000080B584B0F6
:1015F0008DF80F0002919DF90F0001A96A4603F0D2
:10160000D9FB0099012000FA01F201994869904341
:1016100048610298009900FA01F201994869104363
:10162000486104B080BD000080B58AB08DF8270005
:101630008DED080A9DF9270007A906AA03F0BAFB59
:101640009DF9270005A904AA00F002FA0598C06ACE
:1016500003900398013000EE100AB8EE400A9DEDA9
:10166000081A20EE010AB7EE001A30EE010ABCEEAD
:10167000C00A8DED020A0498013801460191032841
:1016800014D80199DFE801F002060A0E02980599C4
:1016900048630CE002980599886308E00298059970
:1016A000C86304E002980599086400E0FFE70AB007
:1016B00080BD000080B586B08DF817009DF9170039
:1016C00004A903AA03F076FB9DF9170002A901AA59
:1016D00000F0BEF99DF917000221FFF7D7FE9DF932
:1016E00017000021FFF744FF9DF917000121FFF7C4
:1016F0005DFF0398072866D8FFE70398810007205D
:1017000000FA01F20499086A9043086202980021E5
:10171000C4F20101884205D0FFE70298B0F1804F82
:101720000AD1FFE703988100012000FA01F2049931
:10173000086A1043086245E0029840F20041C4F292
:101740000001884210D0FFE7029840F60001C4F281
:101750000001884208D0FFE7029840F60041C4F239
:10176000000188420AD1FFE703988100022000FAB5
:1017700001F20499086A1043086222E0029844F2D8
:101780000001C4F20101884210D0FFE7029844F240
:101790000041C4F20101884208D0FFE7029844F6F4
:1017A0000001C4F2010188420AD1FFE703988100D9
:1017B000032000FA01F20499086A10430862FFE767
:1017C000FFE7FFE76EE003988100072000FA01F2CF
:1017D0000499486A9043486202980021C4F20101CA
:1017E000884205D0FFE70298B0F1804F0DD1FFE7A6
:1017F00003996FF01F0000EB8101012000FA01F254
:101800000499486A104348624BE0029840F2004154
:10181000C4F20001884210D0FFE7029840F60001B0
:10182000C4F20001884208D0FFE7029840F6004168
:10183000C4F2000188420DD1FFE703996FF01F0049
:1018400000EB8101022000FA01F20499486A10437A
:10185000486225E0029844F20001C4F20101884286
:1018600010D0FFE7029844F20041C4F2010188421F
:1018700008D0FFE7029844F60001C4F20101884253
:101880000DD1FFE703996FF01F0000EB81010320EA
:1018900000FA01F20499486A10434862FFE7FFE743
:1018A000FFE7FFE70298012101F0F0FE02990868C6
:1018B00020F0010008600299086820F0100008601C
:1018C0000298C06A40080090019801281DD1FFE7E6
:1018D0000299886920F0700088610299886940F057
:1018E000600088610299886940F00800886100986A
:1018F000029948630299086A20F00200086202997E
:10190000086A40F0010008626AE0019802281DD1CF
:10191000FFE70299886920F4E040886102998869AC
:1019200040F4C04088610299886940F40060886191
:101930000098029988630299086A20F020000862E2
:101940000299086A40F01000086248E001980328F4
:1019500022D1FFE70299C86920F07000C86102999E
:10196000C86920F07000C8610299886940F0600081
:1019700088610299886940F008008861009802999E
:10198000C8630299086A20F4007008620299086A24
:1019900040F48070086221E0019804281DD1FFE71F
:1019A0000299C86920F4E040C8610299C86940F40E
:1019B000C040C8610299C86940F40060C8610098DD
:1019C000029908640299086A20F40050086202999A
:1019D000086A40F480500862FFE7FFE7FFE7FFE78F
:1019E00002980021C4F20101884206D1FFE7029962
:1019F000486C40F400404864FFE70299086840F0F2
:101A00000100086006B080BD80B582B08DF8070087
:101A100000919DF90700009900F002F802B080BD26
:101A200080B586B08DF8170004919DF9170003A9C1
:101A300002AA03F0BFF99DF9170001A96A4600F058
:101A400007F80198049901F0C1FE06B080BD0000BE
:101A500080B588B08DF81F00069105929DF91F0092
:101A600004A903AA03F0A6F904980021C4F2020114
:101A7000884256D1FFE7039802900F284FD8029969
:101A8000DFE801F008104D4D4D18204D2A333C4D34
:101A90004D4D4D4506994FF0804008600599012055
:101AA00008603DE006994FF08040086005990220EB
:101AB000086035E006994FF08040086005990120E4
:101AC00008602DE0069940F20040C4F20000086072
:101AD00005990120086023E006990020C4F2010066
:101AE00008600599012008601AE006990020C4F2F8
:101AF0000100086005990220086011E006990020A5
:101B0000C4F20100086005990320086008E0069906
:101B10004FF08040086005990120086000E0FFE771
:101B2000A1E0049840F20041C4F2020188425BD176
:101B3000FFE70398033801460191072852D801991D
:101B4000DFE801F0040C16202A343E4806994FF0D5
:101B50008040086005990220086044E0069940F240
:101B60000040C4F2000008600599012008603AE0D6
:101B7000069940F20040C4F2000008600599022076
:101B8000086030E0069940F60000C4F200000860EA
:101B900005990120086026E0069940F60000C4F28D
:101BA000000008600599022008601CE0069940F6D4
:101BB0000000C4F20000086005990320086012E0EC
:101BC000069940F60000C4F2000008600599042060
:101BD000086008E006994FF08040086005990320EE
:101BE000086000E0FFE73DE0049840F60001C4F221
:101BF0000201884235D1FFE703980638014600917B
:101C000003282CD80099DFE801F0020C1620069971
:101C100040F20040C4F2000008600599012008600D
:101C20001EE0069940F20040C4F2000008600599E9
:101C30000220086014E0069940F20040C4F200005F
:101C400008600599032008600AE0069940F2004008
:101C5000C4F20000086005990420086000E0FFE776
:101C6000FFE7FFE7FFE708B080BD000043F6300163
:101C7000C4F20201086840F00100086070470000EB
:101C800043F63001C4F20201086840F00200086027
:101C90007047000043F63001C4F20201086840F0CA
:101CA000040008607047000081B043F60041C4F2B0
:101CB0000201086820F007000860086840F0020090
:101CC000086043F60001C4F20201086840F0010018
:101CD0000860FFE743F60000C4F2020000688007D6
:101CE000002801D4FFE7F5E743F60001C4F2020142
:101CF000086820F08070086043F60402C4F2020213
:101D00000092106820F48000106010681060106865
:101D1000542363F38E1010601068082363F30500EA
:101D20001060106820F440301060086840F0807047
:101D30000860FFE743F60000C4F20200006800F00C
:101D400000710020B0EB516F01D0FFE7F2E743F6DE
:101D50000801C4F20201086820F003000860086866
:101D600040F002000860FFE743F60800C4F20200FA
:101D7000006800F00C00082801D0FFE7F4E743F604
:101D80000801C4F20201086820F0F0000860086849
:101D900020F4E0500860086840F48050086008684B
:101DA00020F46040086040F20001C2F200014BF6EE
:101DB0000050C0F20150086001B0704780B588B093
:101DC00040F22C20C2F20000029000210791016035
:101DD000016840F25400C2F2000050F8210004F003
:101DE00039F80246029801920A46019942EC101B0A
:101DF00040F2A801C2F20001069181ED000B0268D9
:101E000040F20401C2F2000101EB820191ED000AEF
:101E1000BCEEC00A40F2A401C2F20001049181EDBF
:101E2000000A016840F20010C2F2000050F82100E0
:101E300004F010F80246029803920A46039942EC15
:101E4000101B40F25811C2F20001059181ED000B08
:101E5000016840F2B000C2F2000000EB810090ED9A
:101E6000000ABCEEC00A40F25010C2F2000080ED41
:101E7000000A01680C20FFF7B9FB049801680B20E9
:101E8000FFF7B4FB059890ED000B51EC100B03F03D
:101E9000BFFC00EE100A0120FFF7C6FB069890ED8C
:101EA000000B51EC100B03F0B3FC0146079800EE59
:101EB000101AFFF7B9FB08B080BD000080B588B0EC
:101EC00040F22C20C2F20000029001210691016034
:101ED000016840F25400C2F2000050F8210003F003
:101EE000B9FF0246029801920A46019942EC101B82
:101EF00040F2A801C2F20001079181ED000B0268D7
:101F000040F20401C2F2000101EB820191ED000AEE
:101F1000BCEEC00A40F2A401C2F20001049181EDBE
:101F2000000A016840F20010C2F2000050F82100DF
:101F300003F090FF0246029803920A46039942EC8E
:101F4000101B40F25811C2F20001059181ED000B07
:101F5000016840F2B000C2F2000000EB810090ED99
:101F6000000ABCEEC00A40F25010C2F2000080ED40
:101F7000000A01680C20FFF739FB049801680B2068
:101F8000FFF734FB059890ED000B51EC100B03F0BC
:101F90003FFC0146069800EE101AFFF745FB079834
:101FA00090ED000B51EC100B03F032FC00EE100A28
:101FB0000020FFF739FB08B080BD000080B586B077
:101FC00040F22C20C2F2000001900A210160016859
:101FD00040F25400C2F2000050F8210003F03AFF32
:101FE0000246019800920A46009942EC101B40F20A
:101FF000A801C2F20001059181ED000B026840F2D8
:102000000401C2F2000101EB820191ED000ABCEE75
:10201000C00A40F2A401C2F20001039181ED000A5E
:10202000016840F20010C2F2000050F8210003F0F5
:1020300011FF0246019802920A46029942EC101BD7
:1020400040F25811C2F20001049181ED000B0168C9
:1020500040F2B000C2F2000000EB810090ED000AF7
:10206000BCEEC00A40F25010C2F2000080ED000A3F
:1020700001680C20FFF7BAFA039801680B20FFF7FC
:10208000B5FA049890ED000B51EC100B03F0C0FB77
:1020900000EE100A0120FFF7C7FA059890ED000B3B
:1020A00051EC100B03F0B4FB00EE100A0020FFF718
:1020B000BBFA06B080BD000080B588B040F22C208D
:1020C000C2F2000002900B2105910160016840F20C
:1020D0005400C2F2000050F8210003F0BBFE02469B
:1020E000029801920A46019942EC101B40F2A801A5
:1020F000C2F20001079181ED000B026840F2040179
:10210000C2F2000101EB820191ED000ABCEEC00AAF
:1021100040F2A401C2F20001049181ED000A0168BD
:1021200040F20010C2F2000050F8210003F092FECD
:102130000246029803920A46039942EC101B40F2B1
:102140005811C2F20001069181ED000B016840F2C6
:10215000B000C2F2000000EB810090ED000ABCEE7E
:10216000C00A40F25010C2F2000080ED000A01687F
:102170000C20FFF73BFA049905980968FFF736FA37
:10218000069890ED000B51EC100B03F041FB00EEB4
:10219000100A0120FFF748FA079890ED000B51EC68
:1021A000100B03F035FB00EE100A0020FFF73CFA9D
:1021B00008B080BD80B586B040F22C20C2F200008D
:1021C00002900C2101910160016840F25400C2F2BA
:1021D000000050F8210003F03DFE024602980092F4
:1021E0000A46009942EC101B40F2A801C2F200011D
:1021F000059181ED000B026840F20401C2F200017A
:1022000001EB820191ED000ABCEEC00A40F2A4018C
:10221000C2F20001039181ED000A016840F2001052
:10222000C2F2000050F8210003F014FE02460198AB
:102230000B46029943EC102B40F25812C2F20002F6
:10224000049282ED000B0A6840F2B001C2F2000174
:1022500001EB820191ED000ABCEEC00A40F2501180
:10226000C2F2000181ED000A0968FFF7BFF9039887
:1022700001680B20FFF7BAF9049890ED000B51ECC0
:10228000100B03F0C5FA00EE100A0120FFF7CCF99D
:10229000059890ED000B51EC100B03F0B9FA00EE2D
:1022A000100A0020FFF7C0F906B080BD80B586B0E7
:1022B00040F22C20C2F2000001900D210160016863
:1022C00040F25400C2F2000050F8210003F0C2FDB9
:1022D0000246019800920A46009942EC101B40F217
:1022E000A801C2F20001059181ED000B026840F2E5
:1022F0000401C2F2000101EB820191ED000ABCEE83
:10230000C00A40F2A401C2F20001039181ED000A6B
:10231000016840F20010C2F2000050F8210003F002
:1023200099FD0246019802920A46029942EC101B5E
:1023300040F25811C2F20001049181ED000B0168D6
:1023400040F2B000C2F2000000EB810090ED000A04
:10235000BCEEC00A40F25010C2F2000080ED000A4C
:1023600001680C20FFF742F9039801680B20FFF782
:102370003DF9049890ED000B51EC100B03F048FA76
:1023800000EE100A0120FFF74FF9059890ED000BC1
:1023900051EC100B03F03CFA00EE100A0020FFF79E
:1023A00043F906B080BD000080B586B040F22C2015
:1023B000C2F2000001900E210160016840F2540059
:1023C000C2F2000050F8210003F044FD02460198DB
:1023D00000920A46009942EC101B40F2A801C2F29A
:1023E0000001059181ED000B026840F20401C2F288
:1023F000000101EB820191ED000ABCEEC00A40F23F
:10240000A401C2F20001039181ED000A016840F2CB
:102410000010C2F2000050F8210003F01BFD02463C
:10242000019802920A46029942EC101B40F25811A0
:10243000C2F20001049181ED000B016840F2B0008E
:10244000C2F2000000EB810090ED000ABCEEC00A71
:1024500040F25010C2F2000080ED000A01680C202A
:10246000FFF7C4F8039801680B20FFF7BFF8049842
:1024700090ED000B51EC100B03F0CAF900EE100ABE
:102480000120FFF7D1F8059890ED000B51EC100BEF
:1024900003F0BEF900EE100A0020FFF7C5F806B001
:1024A00080BD000080B586B040F22C20C2F2000052
:1024B00001900F210160016840F25400C2F2000057
:1024C00050F8210003F0C6FC0246019800920A462B
:1024D000009942EC101B40F2A801C2F200010591E4
:1024E00081ED000B026840F20401C2F2000101EB31
:1024F000820191ED000ABCEEC00A40F2A401C2F2D2
:102500000001039181ED000A016840F20010C2F25F
:10251000000050F8210003F09DFC02460198029251
:102520000A46029942EC101B40F25811C2F2000117
:10253000049181ED000B016840F2B000C2F200008E
:1025400000EB810090ED000ABCEEC00A40F2501092
:10255000C2F2000080ED000A01680C20FFF746F887
:10256000039801680B20FFF741F8049890ED000BE9
:1025700051EC100B03F04CF900EE100A0120FFF7AC
:1025800053F8059890ED000B51EC100B03F040F957
:1025900000EE100A0020FFF747F806B080BD0000EB
:1025A00080B586B040F22C20C2F2000001901021CC
:1025B0000160016840F25400C2F2000050F82100AE
:1025C00003F048FC0246019800920A46009942EC4A
:1025D000101B40F2A801C2F20001059181ED000B31
:1025E000026840F20401C2F2000101EB820191EDA8
:1025F000000ABCEEC00A40F2A401C2F2000103913D
:1026000081ED000A016840F20010C2F2000050F8AB
:10261000210003F01FFC0246019802920A4602992B
:1026200042EC101B40F25811C2F20001049181EDFE
:10263000000B016840F2B000C2F2000000EB810024
:1026400090ED000ABCEEC00A40F25010C2F2000049
:1026500080ED000A01680C20FEF7C8FF03980168AE
:102660000B20FEF7C3FF049890ED000B51EC100B0C
:1026700003F0CEF800EE100A0120FEF7D5FF059812
:1026800090ED000B51EC100B03F0C2F800EE100AB5
:102690000020FEF7C9FF06B080BD000080B586B0FF
:1026A00040F22C20C2F2000001901121016001686B
:1026B00040F25400C2F2000050F8210003F0CAFBBF
:1026C0000246019800920A46009942EC101B40F223
:1026D000A801C2F20001059181ED000B026840F2F1
:1026E0000401C2F2000101EB820191ED000ABCEE8F
:1026F000C00A40F2A401C2F20001039181ED000A78
:10270000016840F20010C2F2000050F8210003F00E
:10271000A1FB0246019802920A46029942EC101B64
:1027200040F25811C2F20001049181ED000B0168E2
:1027300040F2B000C2F2000000EB810090ED000A10
:10274000BCEEC00A40F25010C2F2000080ED000A58
:1027500001680C20FEF74AFF039801680B20FEF782
:1027600045FF049890ED000B51EC100B03F050F86E
:1027700000EE100A0120FEF757FF059890ED000BC0
:1027800051EC100B03F044F800EE100A0020FEF7A5
:102790004BFF06B080BD000080B586B040F22C2013
:1027A000C2F20000019012210160016840F2540061
:1027B000C2F2000050F8210003F04CFB02460198E1
:1027C00000920A46009942EC101B40F2A801C2F2A6
:1027D0000001059181ED000B026840F20401C2F294
:1027E000000101EB820191ED000ABCEEC00A40F24B
:1027F000A401C2F20001039181ED000A016840F2D8
:102800000010C2F2000050F8210003F023FB024642
:10281000019802920A46029942EC101B40F25811AC
:10282000C2F20001049181ED000B016840F2B0009A
:10283000C2F2000000EB810090ED000ABCEEC00A7D
:1028400040F25010C2F2000080ED000A01680C2036
:10285000FEF7CCFE039801680B20FEF7C7FE049834
:1028600090ED000B51EC100B02F0D2FF00EE100ABD
:102870000120FEF7D9FE059890ED000B51EC100BEE
:1028800002F0C6FF00EE100A0020FEF7CDFE06B0F3
:1028900080BD000080B586B040F22C20C2F200005E
:1028A000019013210160016840F25400C2F200005F
:1028B00050F8210003F0CEFA0246019800920A4631
:1028C000009942EC101B40F2A801C2F200010591F0
:1028D00081ED000B026840F20401C2F2000101EB3D
:1028E000820191ED000ABCEEC00A40F2A401C2F2DE
:1028F0000001039181ED000A016840F20010C2F26C
:10290000000050F8210003F0A5FA02460198029257
:102910000A46029942EC101B40F25811C2F2000123
:10292000049181ED000B016840F2B000C2F200009A
:1029300000EB810090ED000ABCEEC00A40F250109E
:10294000C2F2000080ED000A01680C20FEF74EFE86
:10295000039801680B20FEF749FE049890ED000BE8
:1029600051EC100B02F054FF00EE100A0120FEF7AC
:102970005BFE059890ED000B51EC100B02F048FF48
:1029800000EE100A0020FEF74FFE06B080BD0000EA
:1029900080B586B040F22C20C2F2000001900221E6
:1029A0000160016840F25400C2F2000050F82100BA
:1029B00003F050FA0246019800920A46009942EC50
:1029C000101B40F2A801C2F20001059181ED000B3D
:1029D000026840F20401C2F2000101EB820191EDB4
:1029E000000ABCEEC00A40F2A401C2F20001039149
:1029F00081ED000A016840F20010C2F2000050F8B8
:102A0000210003F027FA0246019802920A46029931
:102A100042EC101B40F25811C2F20001049181ED0A
:102A2000000B016840F2B000C2F2000000EB810030
:102A300090ED000ABCEEC00A40F25010C2F2000055
:102A400080ED000A01680C20FEF7D0FD03980168B4
:102A50000B20FEF7CBFD049890ED000B51EC100B12
:102A600002F0D6FE00EE100A0120FEF7DDFD05980B
:102A700090ED000B51EC100B02F0CAFE00EE100AB4
:102A80000020FEF7D1FD06B080BD000080B586B005
:102A900040F22C20C2F20000019003210160016885
:102AA00040F25400C2F2000050F8210003F0D2F9C5
:102AB0000246019800920A46009942EC101B40F22F
:102AC000A801C2F20001059181ED000B026840F2FD
:102AD0000401C2F2000101EB820191ED000ABCEE9B
:102AE000C00A40F2A401C2F20001039181ED000A84
:102AF000016840F20010C2F2000050F8210003F01B
:102B0000A9F90246019802920A46029942EC101B6A
:102B100040F25811C2F20001049181ED000B0168EE
:102B200040F2B000C2F2000000EB810090ED000A1C
:102B3000BCEEC00A40F25010C2F2000080ED000A64
:102B400001680C20FEF752FD039801680B20FEF788
:102B50004DFD049890ED000B51EC100B02F058FE67
:102B600000EE100A0120FEF75FFD059890ED000BC6
:102B700051EC100B02F04CFE00EE100A0020FEF7A4
:102B800053FD06B080BD000080B586B040F22C2019
:102B9000C2F20000019004210160016840F254007B
:102BA000C2F2000050F8210003F054F902460198E7
:102BB00000920A46009942EC101B40F2A801C2F2B2
:102BC0000001059181ED000B026840F20401C2F2A0
:102BD000000101EB820191ED000ABCEEC00A40F257
:102BE000A401C2F20001039181ED000A016840F2E4
:102BF0000010C2F2000050F8210003F02BF9024649
:102C0000019802920A46029942EC101B40F25811B8
:102C1000C2F20001049181ED000B016840F2B000A6
:102C2000C2F2000000EB810090ED000ABCEEC00A89
:102C300040F25010C2F2000080ED000A01680C2042
:102C4000FEF7D4FC039801680B20FEF7CFFC049834
:102C500090ED000B51EC100B02F0DAFD00EE100AC3
:102C60000120FEF7E1FC059890ED000B51EC100BF4
:102C700002F0CEFD00EE100A0020FEF7D5FC06B0F3
:102C800080BD000080B586B040F22C20C2F200006A
:102C9000019005210160016840F25400C2F2000079
:102CA00050F8210003F0D6F80246019800920A4637
:102CB000009942EC101B40F2A801C2F200010591FC
:102CC00081ED000B026840F20401C2F2000101EB49
:102CD000820191ED000ABCEEC00A40F2A401C2F2EA
:102CE0000001039181ED000A016840F20010C2F278
:102CF000000050F8210003F0ADF80246019802925E
:102D00000A46029942EC101B40F25811C2F200012F
:102D1000049181ED000B016840F2B000C2F20000A6
:102D200000EB810090ED000ABCEEC00A40F25010AA
:102D3000C2F2000080ED000A01680C20FEF756FC8C
:102D4000039801680B20FEF751FC049890ED000BEE
:102D500051EC100B02F05CFD00EE100A0120FEF7B2
:102D600063FC059890ED000B51EC100B02F050FD48
:102D700000EE100A0020FEF757FC06B080BD0000F0
:102D800080B586B040F22C20C2F2000001900621EE
:102D90000160016840F25400C2F2000050F82100C6
:102DA00003F058F80246019800920A46009942EC56
:102DB000101B40F2A801C2F20001059181ED000B49
:102DC000026840F20401C2F2000101EB820191EDC0
:102DD000000ABCEEC00A40F2A401C2F20001039155
:102DE00081ED000A016840F20010C2F2000050F8C4
:102DF000210003F02FF80246019802920A46029938
:102E000042EC101B40F25811C2F20001049181ED16
:102E1000000B016840F2B000C2F2000000EB81003C
:102E200090ED000ABCEEC00A40F25010C2F2000061
:102E300080ED000A01680C20FEF7D8FB03980168BA
:102E40000B20FEF7D3FB049890ED000B51EC100B18
:102E500002F0DEFC00EE100A0120FEF7E5FB05980B
:102E600090ED000B51EC100B02F0D2FC00EE100ABA
:102E70000020FEF7D9FB06B080BD000080B586B00B
:102E800040F22C20C2F2000001900721016001688D
:102E900040F25400C2F2000050F8210002F0DAFFC4
:102EA0000246019800920A46009942EC101B40F23B
:102EB000A801C2F20001059181ED000B026840F209
:102EC0000401C2F2000101EB820191ED000ABCEEA7
:102ED000C00A40F2A401C2F20001039181ED000A90
:102EE000016840F20010C2F2000050F8210002F028
:102EF000B1FF0246019802920A46029942EC101B69
:102F000040F25811C2F20001049181ED000B0168FA
:102F100040F2B000C2F2000000EB810090ED000A28
:102F2000BCEEC00A40F25010C2F2000080ED000A70
:102F300001680C20FEF75AFB039801680B20FEF78E
:102F400055FB049890ED000B51EC100B02F060FC67
:102F500000EE100A0120FEF767FB059890ED000BCC
:102F600051EC100B02F054FC00EE100A0020FEF7AA
:102F70005BFB06B080BD000080B586B040F22C201F
:102F8000C2F20000019008210160016840F2540083
:102F9000C2F2000050F8210002F05CFF02460198E6
:102FA00000920A46009942EC101B40F2A801C2F2BE
:102FB0000001059181ED000B026840F20401C2F2AC
:102FC000000101EB820191ED000ABCEEC00A40F263
:102FD000A401C2F20001039181ED000A016840F2F0
:102FE0000010C2F2000050F8210002F033FF024648
:102FF000019802920A46029942EC101B40F25811C5
:10300000C2F20001049181ED000B016840F2B000B2
:10301000C2F2000000EB810090ED000ABCEEC00A95
:1030200040F25010C2F2000080ED000A01680C204E
:10303000FEF7DCFA039801680B20FEF7D7FA049834
:1030400090ED000B51EC100B02F0E2FB00EE100AC9
:103050000120FEF7E9FA059890ED000B51EC100BFA
:1030600002F0D6FB00EE100A0020FEF7DDFA06B0F3
:1030700080BD000080B586B040F22C20C2F2000076
:10308000019009210160016840F25400C2F2000081
:1030900050F8210002F0DEFE0246019800920A4636
:1030A000009942EC101B40F2A801C2F20001059108
:1030B00081ED000B026840F20401C2F2000101EB55
:1030C000820191ED000ABCEEC00A40F2A401C2F2F6
:1030D0000001039181ED000A016840F20010C2F284
:1030E000000050F8210002F0B5FE0246019802925D
:1030F0000A46029942EC101B40F25811C2F200013C
:10310000049181ED000B016840F2B000C2F20000B2
:1031100000EB810090ED000ABCEEC00A40F25010B6
:10312000C2F2000080ED000A01680C20FEF75EFA92
:10313000039801680B20FEF759FA049890ED000BF4
:1031400051EC100B02F064FB00EE100A0120FEF7B8
:103150006BFA059890ED000B51EC100B02F058FB48
:1031600000EE100A0020FEF75FFA06B080BD0000F6
:1031700080B500F001F880BD40F23021C2F20001BC
:10318000086801300860704780B582B04EF21001C7
:10319000CEF20001002008600A6842F004020A60D2
:1031A0004EF21403CEF2000344F61F02C0F20102F5
:1031B0001A604EF21802CEF200021060086840F069
:1031C00002000860086840F0010008604FF0FF301E
:1031D0000190102101F0A0FD019801F04BFD02B01B
:1031E00080BD00004EF68851CEF20001086840F420
:1031F000700008607047000080B596B040F2004053
:10320000C4F2000001F028FE002800F0BE81FFE7B4
:1032100040F22C20C2F20000016840F22820C2F2E5
:103220000000016000681590132800F2A78115992D
:10323000DFE811F0140028003C0050006400780022
:103240008C00A000B400C800DC00F00004011801EC
:103250002C014001540168017C01900140F2C11031
:10326000C2F20000149046F26001C0F60001FDF7C2
:103270008FF8149941F20000C4F20100142201F009
:10328000AFFC7BE140F2C110C2F20000139046F2A5
:103290006001C0F60001FDF77BF8139941F20000D0
:1032A000C4F20100142201F09BFC67E140F2C1105E
:1032B000C2F20000129046F26001C0F60001FDF774
:1032C00067F8129941F20000C4F20100142201F0E3
:1032D00087FC53E140F2C110C2F20000119046F2A7
:1032E0006001C0F60001FDF753F8119941F20000AA
:1032F000C4F20100142201F073FC3FE140F2C1105E
:10330000C2F20000109046F26001C0F60001FDF725
:103310003FF8109941F20000C4F20100142201F0BC
:103320005FFC2BE140F2C110C2F200000F9046F2A8
:103330006001C0F60001FDF72BF80F9941F2000083
:10334000C4F20100142201F04BFC17E140F2C1105D
:10335000C2F200000E9046F26001C0F60001FDF7D7
:1033600017F80E9941F20000C4F20100142201F096
:1033700037FC03E140F2C110C2F200000D9046F2AA
:103380006001C0F60001FDF703F80D9941F200005D
:10339000C4F20100142201F023FCEFE040F2C1105E
:1033A000C2F200000C9046F26001C0F60001FCF78A
:1033B000EFFF0C9941F20000C4F20100142201F069
:1033C0000FFCDBE040F2C110C2F200000B9046F2AD
:1033D0006001C0F60001FCF7DBFF0B9941F2000031
:1033E000C4F20100142201F0FBFBC7E040F2C1105F
:1033F000C2F200000A9046F26001C0F60001FCF73C
:10340000C7FF0A9941F20000C4F20100142201F042
:10341000E7FBB3E040F2C110C2F20000099046F2AF
:103420006001C0F60001FCF7B3FF099941F200000A
:10343000C4F20100142201F0D3FB9FE040F2C1105E
:10344000C2F20000089046F26001C0F60001FCF7ED
:103450009FFF089941F20000C4F20100142201F01C
:10346000BFFB8BE040F2C110C2F20000079046F2B1
:103470006001C0F60001FCF78BFF079941F20000E4
:10348000C4F20100142201F0ABFB77E040F2C1105E
:10349000C2F20000069046F26001C0F60001FCF79F
:1034A00077FF069941F20000C4F20100142201F0F6
:1034B00097FB63E040F2C110C2F20000059046F2B3
:1034C0006001C0F60001FCF763FF059941F20000BE
:1034D000C4F20100142201F083FB4FE040F2C1105E
:1034E000C2F20000049046F26001C0F60001FCF751
:1034F0004FFF049941F20000C4F20100142201F0D0
:103500006FFB3BE040F2C110C2F20000039046F2B4
:103510006001C0F60001FCF73BFF039941F2000097
:10352000C4F20100142201F05BFB27E040F2C1105D
:10353000C2F20000029046F26001C0F60001FCF702
:1035400027FF029941F20000C4F20100142201F0A9
:1035500047FB13E040F2C110C2F20000019046F2B6
:103560006001C0F60001FCF713FF019941F2000071
:10357000C4F20100142201F033FBFFE740F20040E7
:10358000C4F2000001F00CFCFFE716B080BD0000A3
:1035900081B000900099C86840F00100C86001B097
:1035A0007047000080B584B003900291039802999F
:1035B00000F06CF80398FFF7EBFF002001900398F0
:1035C0000021C4F20101884203D1FFE719200190D4
:1035D00050E00398B0F1804F03D1FFE71C20019029
:1035E00047E0039840F20041C4F20001884203D151
:1035F000FFE71D2001903BE0039840F60001C4F274
:103600000001884203D1FFE71E2001902FE00398BC
:1036100040F60041C4F20001884203D1FFE73220A6
:10362000019023E0039844F20001C4F201018842B2
:1036300003D1FFE71820019017E0039844F20041FE
:10364000C4F20101884203D1FFE7192001900BE089
:10365000039844F60001C4F20101884203D1FFE758
:103660001A200190FFE7FFE7FFE7FFE7FFE7FFE72B
:10367000FFE7FFE79DF9040001F0E4FA9DF904007B
:10368000022101F027FB04B080BD000080B582B0AC
:103690000190009101980021C4F20101884209D1F2
:1036A000FFE743F64401C4F20201086840F001005C
:1036B00008607AE00198B0F1804F09D1FFE743F646
:1036C0004001C4F20201086840F0010008606BE0AC
:1036D000019840F20041C4F20001884209D1FFE79D
:1036E00043F64001C4F20201086840F0020008609D
:1036F00059E0019840F60001C4F20001884209D166
:10370000FFE743F64001C4F20201086840F00400FC
:10371000086047E0019840F60041C4F20001884289
:1037200009D1FFE743F64001C4F20201086840F006
:103730000800086035E0019844F20001C4F201017C
:10374000884209D1FFE743F64401C4F20201086848
:1037500040F48030086023E0019844F20041C4F254
:103760000101884209D1FFE743F64401C4F2020196
:10377000086840F40030086011E0019844F6000148
:10378000C4F20101884209D1FFE743F64401C4F2C3
:103790000201086840F480200860FFE7FFE7FFE7C8
:1037A000FFE7FFE7FFE7FFE7FFE70198009900F079
:1037B0000DF80199086820F0100008600199086868
:1037C00040F00100086002B080BD000086B00590A6
:1037D000049143F60800C4F2020000688007002844
:1037E00006D5FFE74BF60050C0F2015002900EE004
:1037F00043F60800C4F202000068002030B9FFE779
:1038000042F20040C0F2F4000290FFE7FFE70598A3
:10381000B0F1804F08D0FFE7059840F60041C4F2B0
:103820000001884219D1FFE70298400945F6C521F9
:10383000C0F67C21A0FB0110C009ADF80E00049871
:10384000642148430190BDF80E0001380599886253
:10385000019801380599C8621AE00298400945F6B6
:10386000C521C0F67C21A0FB0110C009ADF80E00F7
:10387000049864214843ADF80200BDF80E000138F9
:1038800005998862BDF8020001380599C862FFE712
:1038900006B0704780B541F20000C4F20100092172
:1038A0000A224FF4165301F05BF880BD80B544F254
:1038B0000040C4F20000022103224FF4165301F02D
:1038C0004FF880BD80B586B0059004910599C86811
:1038D00020F40050C86005990020886043F2A07071
:1038E000C4F6A0400390059844F20041C4F20001E0
:1038F000884209D1FFE79DED030AB0EE001A80EE81
:10390000010A8DED030AFFE79DED030A049800010B
:1039100001EE100AB8EE411A80EE010A8DED020A9E
:103920009DED020ABCEEC00A8DED010A9DED020A72
:103930009DED011AB8EE411A30EE410AB3EE001ABD
:1039400020EE010A10EE100A02F084FA41EC100B8E
:1039500001F0BAFE51EC100B02F040F80090019912
:10396000009840EA0112059988681043886005991B
:10397000C86840F40050C86006B080BD80B5BEB0D5
:1039800001F072FA002800F0B787FFE700F0B6FFF9
:10399000014640F2C010C2F20000017000786928B0
:1039A00040F04281FFE740F22C20C2F200000168A3
:1039B00040F22820C2F20000016000683D90132808
:1039C00000F230813D99DFE811F0140017001A0071
:1039D0001D0020002300260029003D005100650045
:1039E00079008D00A100B500C900DD00F1000501DE
:1039F0001901FEF7CDFF15E1FFF744F912E1FFF7DA
:103A000045F80FE1FFF7C0F80CE1FFF7BDF809E159
:103A1000FFF7B6F906E1FFF731FA03E140F2C11012
:103A2000C2F200003C9046F28001C0F60001FCF7B3
:103A3000AFFC3C9941F20000C4F20100142201F0F5
:103A4000CFF8EFE040F2C110C2F200003B9046F226
:103A5000D401C0F60001FCF79BFC3B9941F2000049
:103A6000C4F20100142201F0BBF8DBE040F2C11007
:103A7000C2F200003A9046F2D401C0F60001FCF711
:103A800087FC3A9941F20000C4F20100142201F0CF
:103A9000A7F8C7E040F2C110C2F20000399046F228
:103AA000D401C0F60001FCF773FC399941F2000023
:103AB000C4F20100142201F093F8B3E040F2C11007
:103AC000C2F20000389046F2D401C0F60001FCF7C3
:103AD0005FFC389941F20000C4F20100142201F0A9
:103AE0007FF89FE040F2C110C2F20000379046F22A
:103AF000D401C0F60001FCF74BFC379941F20000FD
:103B0000C4F20100142201F06BF88BE040F2C11006
:103B1000C2F20000369046F2D401C0F60001FCF774
:103B200037FC369941F20000C4F20100142201F082
:103B300057F877E040F2C110C2F20000359046F22B
:103B4000D401C0F60001FCF723FC359941F20000D6
:103B5000C4F20100142201F043F863E040F2C11006
:103B6000C2F20000349046F2D401C0F60001FCF726
:103B70000FFC349941F20000C4F20100142201F05C
:103B80002FF84FE040F2C110C2F20000339046F22D
:103B9000D401C0F60001FCF7FBFB339941F20000B1
:103BA000C4F20100142201F01BF83BE040F2C11006
:103BB000C2F20000329046F2D401C0F60001FCF7D8
:103BC000E7FB329941F20000C4F20100142201F037
:103BD00007F827E040F2C110C2F20000319046F22F
:103BE000D401C0F60001FCF7D3FB319941F200008B
:103BF000C4F20100142200F0F3FF13E040F2C11000
:103C0000C2F20000309046F2D401C0F60001FCF789
:103C1000BFFB309941F20000C4F20100142200F011
:103C2000DFFFFFE700F067BE40F2C010C2F2000005
:103C300000786B2840F05381FFE740F22C20C2F25D
:103C40000000016840F22820C2F200000160006814
:103C50002F90132800F241812F99DFE811F0140012
:103C600028003C003F004200450048004B004E0049
:103C7000620076008A009E00B200C600DA00EE0004
:103C8000020116012A0140F2C110C2F200002E907A
:103C900046F29001C0F60001FCF77AFB2E9941F242
:103CA0000000C4F20100142200F09AFF15E140F276
:103CB000C110C2F200002D9046F29001C0F6000142
:103CC000FCF766FB2D9941F20000C4F201001422BA
:103CD00000F086FF01E1FEF771F8FEE0FEF758FE06
:103CE000FBE0FEF7D3FEF8E0FEF7E8F8F5E0FEF7BC
:103CF000C9FFF2E0FFF744F8EFE040F2C110C2F272
:103D000000002C9046F2D401C0F60001FCF740FB05
:103D10002C9941F20000C4F20100142200F060FF6F
:103D2000DBE040F2C110C2F200002B9046F2D40159
:103D3000C0F60001FCF72CFB2B9941F20000C4F205
:103D40000100142200F04CFFC7E040F2C110C2F2A3
:103D500000002A9046F2D401C0F60001FCF718FBDF
:103D60002A9941F20000C4F20100142200F038FF49
:103D7000B3E040F2C110C2F20000299046F2D40133
:103D8000C0F60001FCF704FB299941F20000C4F2DF
:103D90000100142200F024FF9FE040F2C110C2F2A3
:103DA0000000289046F2D401C0F60001FCF7F0FABA
:103DB000289941F20000C4F20100142200F010FF23
:103DC0008BE040F2C110C2F20000279046F2D4010D
:103DD000C0F60001FCF7DCFA279941F20000C4F2BA
:103DE0000100142200F0FCFE77E040F2C110C2F2A4
:103DF0000000269046F2D401C0F60001FCF7C8FA94
:103E0000269941F20000C4F20100142200F0E8FEFD
:103E100063E040F2C110C2F20000259046F2D401E6
:103E2000C0F60001FCF7B4FA259941F20000C4F293
:103E30000100142200F0D4FE4FE040F2C110C2F2A3
:103E40000000249046F2D401C0F60001FCF7A0FA6D
:103E5000249941F20000C4F20100142200F0C0FED7
:103E60003BE040F2C110C2F20000239046F2D401C0
:103E7000C0F60001FCF78CFA239941F20000C4F26D
:103E80000100142200F0ACFE27E040F2C110C2F2A3
:103E90000000229046F2D401C0F60001FCF778FA47
:103EA000229941F20000C4F20100142200F098FEB1
:103EB00013E040F2C110C2F20000219046F2D4019A
:103EC000C0F60001FCF764FA219941F20000C4F247
:103ED0000100142200F084FEFFE700F00BBD40F269
:103EE000C010C2F2000000786A2840F0E380FFE7CB
:103EF00040F22C20C2F20000016840F22820C2F2F9
:103F00000000016000682090132800F2D180209901
:103F1000DFE801F00A0D1024384C6074888B8EA203
:103F2000A5A8ABAEB1C5C8CBFFF726F8C0E0FEF739
:103F30003BFABDE040F2C110C2F200001F9046F211
:103F4000D401C0F60001FCF723FA1F9941F20000EA
:103F5000C4F20100142200F043FEA9E040F2C110B7
:103F6000C2F200001E9046F2D401C0F60001FCF738
:103F70000FFA1E9941F20000C4F20100142200F071
:103F80002FFE95E040F2C110C2F200001D9046F2F3
:103F9000D401C0F60001FCF7FBF91D9941F20000C5
:103FA000C4F20100142200F01BFE81E040F2C110B7
:103FB000C2F200001C9046F2D401C0F60001FCF7EA
:103FC000E7F91C9941F20000C4F20100142200F04C
:103FD00007FE6DE040F2C110C2F200001B9046F2F5
:103FE000D401C0F60001FCF7D3F91B9941F200009F
:103FF000C4F20100142200F0F3FD59E040F2C110B8
:10400000C2F200001A9046F2D401C0F60001FCF79B
:10401000BFF91A9941F20000C4F20100142200F025
:10402000DFFD45E0FFF726F842E0FDF7C7FF3FE080
:1040300040F2C110C2F20000199046F21511C0F60C
:104040000001FCF7A5F9199941F20000C4F2010042
:10405000142200F0C5FD2BE0FDF7B0FE28E0FEF7CE
:104060002BF825E0FEF7A6F822E0FEF71BFA1FE08A
:10407000FEF796FA1CE040F2C110C2F20000189060
:1040800046F2F501C0F60001FCF782F9189941F2F9
:104090000000C4F20100142200F0A2FD08E0FDF7C8
:1040A0000DFF05E0FEF7FAFA02E0FEF775FBFFE709
:1040B00000F01FBC40F2C010C2F2000000786C2873
:1040C00040F0E380FFE740F22C20C2F200000168DC
:1040D00040F22820C2F20000016000681790132807
:1040E00000F2D1801799DFE801F00A0D1024384C56
:1040F0006074888B8E919497ABAEB1B4B7BAFDF76C
:10410000DBFFC0E0FEF7CAFABDE040F2C110C2F228
:104110000000169046F2D401C0F60001FCF738F911
:10412000169941F20000C4F20100142200F058FD7B
:10413000A9E040F2C110C2F20000159046F2D4018D
:10414000C0F60001FCF724F9159941F20000C4F211
:104150000100142200F044FD95E040F2C110C2F2CB
:104160000000149046F2D401C0F60001FCF710F9EB
:10417000149941F20000C4F20100142200F030FD55
:1041800081E040F2C110C2F20000139046F2D40167
:10419000C0F60001FCF7FCF8139941F20000C4F2EC
:1041A0000100142200F01CFD6DE040F2C110C2F2CB
:1041B0000000129046F2D401C0F60001FCF7E8F8C6
:1041C000129941F20000C4F20100142200F008FD2F
:1041D00059E040F2C110C2F20000119046F2D40141
:1041E000C0F60001FCF7D4F8119941F20000C4F2C6
:1041F0000100142200F0F4FC45E0FDF7DFFD42E091
:10420000FEF7BAFE3FE0FEF735FF3CE0FDF7D2FFD8
:1042100039E0FEF74BF836E040F2C110C2F2000080
:10422000109046F25811C0F60001FCF7B1F8109951
:1042300041F20000C4F20100142200F0D1FC22E09F
:10424000FDF73CFE1FE0FEF7AFF81CE0FEF72AF991
:1042500019E0FEF7A1FA16E0FEF71CFB13E040F2AE
:10426000C110C2F200000F9046F23611C0F60001F4
:10427000FCF78EF80F9941F20000C4F201001422FD
:1042800000F0AEFCFFE700F033BB40F2C010C2F21A
:1042900000000078662840F09E80FFE740F22C2066
:1042A000C2F20000016840F22820C2F20000016062
:1042B00000680E90132800F28D800E99DFE801F05F
:1042C0000A1E2135495D606366696C6F7275787B83
:1042D0007E81848740F2C110C2F200000D9046F248
:1042E000BA01C0F60001FCF753F80D9941F2000045
:1042F000C4F20100142200F073FC6BE0FDF75EFDD8
:1043000068E040F2C110C2F200000C9046F2BA011F
:10431000C0F60001FCF73CF80C9941F20000C4F231
:104320000100142200F05CFC54E040F2C110C2F223
:1043300000000B9046F2BA01C0F60001FCF728F825
:104340000B9941F20000C4F20100142200F048FC75
:1043500040E040F2C110C2F200000A9046F2BA01F9
:10436000C0F60001FCF714F80A9941F20000C4F20B
:104370000100142200F034FC2CE0FEF709FB29E0D8
:10438000FEF784FB26E0FEF7FFFB23E0FEF700FBD1
:1043900020E0FEF7FDFA1DE0FEF7FAFA1AE0FEF75C
:1043A000F7FA17E0FEF7F4FA14E0FEF7F1FA11E07D
:1043B000FDF704FD0EE0FDF701FD0BE0FDF7FEFC4F
:1043C00008E0FDF7FBFC05E0FDF7F8FC02E0FDF777
:1043D000F5FCFFE78BE240F2C010C2F2000000786B
:1043E000622840F09E80FFE740F22C20C2F20000DD
:1043F000016840F22820C2F20000016000680990C4
:10440000132800F28D800999DFE801F00A0D2124BC
:10441000272A3E5266696C6F7275787B7E8184872D
:10442000FDF74CFD7CE040F2C110C2F200000890A4
:1044300046F29F01C0F60001FBF7AAFF089941F27E
:104440000000C4F20100142200F0CAFB68E0FEF78D
:1044500019FC65E0FEF794FC62E0FEF70FFD5FE0FB
:1044600040F2C110C2F20000079046F29F01C0F670
:104470000001FBF78DFF079941F20000C4F2010033
:10448000142200F0ADFB4BE040F2C110C2F200007C
:10449000069046F29F01C0F60001FBF779FF0699EE
:1044A00041F20000C4F20100142200F099FB37E051
:1044B00040F2C110C2F20000059046F29F01C0F622
:1044C0000001FBF765FF059941F20000C4F201000D
:1044D000142200F085FB23E0FDF7F0FC20E0FDF75F
:1044E000EDFC1DE0FDF7EAFC1AE0FDF7E7FC17E044
:1044F000FDF7E4FC14E0FDF7E1FC11E0FEF7C2FB80
:104500000EE0FEF7BFFB0BE0FEF7BCFB08E0FEF79A
:10451000B9FB05E0FEF7B6FB02E0FEF7B3FBFFE7F1
:10452000E4E140F2C010C2F200000078732858D1D4
:10453000FFE740F22C20C2F20000016840F2282080
:10454000C2F20000016000680490132848D8049962
:10455000DFE801F00A0D101316191C1F2225282B65
:104560002E3134373A3D4043FDF728FC38E0FDF763
:1045700025FC35E0FDF722FC32E0FDF71FFC2FE0C3
:10458000FDF71CFC2CE0FDF719FC29E0FDF716FCFB
:1045900026E0FDF713FC23E0FDF710FC20E0FDF71B
:1045A0000DFC1DE0FDF70AFC1AE0FDF707FC17E023
:1045B000FDF704FC14E0FDF701FC11E0FDF7FEFB44
:1045C0000EE0FDF7FBFB0BE0FDF7F8FB08E0FDF765
:1045D000F5FB05E0FDF7F2FB02E0FDF7EFFBFFE77F
:1045E00083E140F2C010C2F200000078302858D1B8
:1045F000FFE740F22C20C2F20000016840F22820C0
:10460000C2F20000016000680390132848D80399A3
:10461000DFE801F00A0D101316191C1F2225282BA4
:104620002E3134373A3D4043FDF7C8FB38E0FDF703
:1046300045FC35E0FDF7C2FB32E0FDF7BFFB2FE0A4
:10464000FDF7BCFB2CE0FDF739FC29E0FDF736FC5B
:1046500026E0FDF733FC23E0FDF7B0FB20E0FDF79B
:10466000ADFB1DE0FDF7AAFB1AE0FDF7A7FB17E085
:10467000FDF7A4FB14E0FDF7A1FB11E0FDF71EFC24
:104680000EE0FDF71BFC0BE0FDF718FC08E0FDF762
:1046900015FC05E0FDF712FC02E0FDF70FFCFFE75B
:1046A00022E140F2C010C2F200000078312858D157
:1046B000FFE740F22C20C2F20000016840F22820FF
:1046C000C2F20000016000680290132848D80299E5
:1046D000DFE801F00A0D101316191C1F2225282BE4
:1046E0002E3134373A3D4043FEF752F938E0FEF7B9
:1046F000C9FA35E0FEF74CF932E0FEF749F92FE050
:10470000FEF746F92CE0FEF7BDFA29E0FEF7BAFA0B
:1047100026E0FEF7B7FA23E0FEF73AF920E0FEF7CD
:1047200037F91DE0FEF734F91AE0FEF731F917E02A
:10473000FEF72EF914E0FEF72BF911E0FEF7A2FACE
:104740000EE0FEF79FFA0BE0FEF79CFA08E0FEF79A
:1047500099FA05E0FEF796FA02E0FEF793FAFFE712
:10476000C1E040F2C010C2F200000078322858D1F7
:10477000FFE740F22C20C2F20000016840F228203E
:10478000C2F20000016000680190132848D8019926
:10479000DFE801F00A0D101316191C1F2225282B23
:1047A0002E3134373A3D4043FEF770F938E0FEF7DA
:1047B000E7FA35E0FEF76AF932E0FEF767F92FE035
:1047C000FEF764F92CE0FEF7DBFA29E0FEF7D8FAF1
:1047D00026E0FEF7D5FA23E0FEF758F920E0FEF7D1
:1047E00055F91DE0FEF752F91AE0FEF74FF917E010
:1047F000FEF74CF914E0FEF749F911E0FEF7C0FAB4
:104800000EE0FEF7BDFA0BE0FEF7BAFA08E0FEF79D
:10481000B7FA05E0FEF7B4FA02E0FEF7B1FAFFE7F7
:1048200060E040F2C010C2F200000078332858D196
:10483000FFE740F22C20C2F20000016840F228207D
:10484000C2F20000016000680090132848D8009967
:10485000DFE801F00A0D101316191C1F2225282B62
:104860002E3134373A3D4043FEF78EF938E0FEF7FB
:1048700005FB35E0FEF788F932E0FEF785F92FE019
:10488000FEF782F92CE0FEF7F9FA29E0FEF7F6FAD6
:1048900026E0FEF7F3FA23E0FEF776F920E0FEF7D4
:1048A00073F91DE0FEF770F91AE0FEF76DF917E0F5
:1048B000FEF76AF914E0FEF767F911E0FEF7DEFA99
:1048C0000EE0FEF7DBFA0BE0FEF7D8FA08E0FEF7A1
:1048D000D5FA05E0FEF7D2FA02E0FEF7CFFAFFE7DD
:1048E000FFE7FFE7FFE7FFE7FFE7FFE7FFE7FFE798
:1048F000FFE7FFE7FFE7FFE73EB080BD80B541F28D
:104900000000C4F2010000F01BF880BD82B00190ED
:1049100001986421414344F62510C2F29240A1FB64
:104920000020091A00EB510080080090FFE7009872
:104930000138009008B1FFE7F9E702B070470000C6
:1049400081B00090FFE70098006800F02000202868
:1049500001D0FFE7F7E700984068C0B201B07047A8
:1049600080B58EB00D908DF833108DF832200B93FA
:104970009DF933000AA909AA00F01CFA9DF932003A
:1049800008A907AA00F016FA9DF933000221049144
:10499000FCF77CFD9DF9330000210591FCF7E8FD53
:1049A00005999DF93300FCF701FE9DF933000121C3
:1049B0000691FCF7BDFD04999DF93200FCF766FDF8
:1049C00005999DF93200FCF7D3FD05999DF9320058
:1049D000FCF7ECFD06999DF93200FCF7A9FD0D9856
:1049E00041F20041C4F20101884237D1FFE7099842
:1049F00007280AD8FFE709988100082000FA01F289
:104A00000A99086A104308620CE009996FF01F00C8
:104A100000EB8101082000FA01F20A99486A10436C
:104A20004862FFE7079807280AD8FFE70798810040
:104A3000082000FA01F20899086A104308620CE0A5
:104A400007996FF01F0000EB8101082000FA01F2C6
:104A50000899486A10434862FFE736E0099807283A
:104A60000AD8FFE709988100072000FA01F20A99A5
:104A7000086A104308620CE009996FF01F0000EB10
:104A80008101072000FA01F20A99486A104348623E
:104A9000FFE7079807280AD8FFE707988100072053
:104AA00000FA01F20899086A104308620CE00799BD
:104AB0006FF01F0000EB8101072000FA01F2089956
:104AC000486A10434862FFE7FFE70D9841F2000192
:104AD000C4F20101884209D1FFE743F64401C4F260
:104AE0000201086840F0100008601AE00D9844F2D6
:104AF0000041C4F20001884209D1FFE743F64001BA
:104B0000C4F20201086840F40030086008E043F68F
:104B10004401C4F20201086840F020000860FFE789
:104B2000FFE70D99C86820F40050C8600D99C86867
:104B300020F48060C8600D99C86820F48050C86077
:104B40000D99C86820F40040C8600D99086920F4E8
:104B5000405008610D980B99FEF7B4FE0D99C86896
:104B600040F00C00C8600D99C86840F40050C8605F
:104B70000D99C86840F02000C8600D9841F200010E
:104B8000C4F20101884209D1FFE7252003900121E9
:104B900000F0E4F8039800F085F81AE00D9844F26C
:104BA0000041C4F20001884209D1FFE726200290AB
:104BB000012100F0D3F8029800F074F808E04720D3
:104BC0000190012100F0CAF8019800F06BF8FFE7AE
:104BD000FFE70D99C86840F40050C8600EB080BD72
:104BE00080B584B003900291019200200090FFE70D
:104BF00000980199884216D2FFE7FFE70398006802
:104C00000006002801D4FFE7F8E702980099405C0D
:104C1000039948604FF49670FFF778FEFFE700981D
:104C200001300090E4E7FFE70398006840060028A1
:104C300001D4FFE7F8E70399086820F04000086016
:104C400004B080BD81B08DF803009DF903000028F9
:104C50000ED4FFE79DF9031001F01F0201209040E0
:104C60004A094EF20011CEF2000141F82200FFE79E
:104C700001B0704781B08DF803009DF90300002852
:104C80000ED4FFE79DF9031001F01F0201209040B0
:104C90004A094EF20011CEF2000141F82200FFE76E
:104CA00001B0704781B08DF803009DF90300002822
:104CB0000ED4FFE79DF9031001F01F020120904080
:104CC0004A094EF20011CEF2000141F82200FFE73E
:104CD00001B0704782B08DF8070000919DF9070080
:104CE00000280AD4FFE7009800019DF907104EF252
:104CF0000042CEF2000288540BE0009800019DF8BB
:104D0000071001F00F014EF61452CEF20002885443
:104D1000FFE702B07047000082B08DF807000091F5
:104D20009DF9070000280AD4FFE7009800019DF9CB
:104D300007104EF20042CEF2000288540BE00098B9
:104D400000019DF8071001F00F014EF61452CEF24B
:104D500000028854FFE702B07047000082B08DF86F
:104D6000070000919DF9070000280AD4FFE700988A
:104D700000019DF907104EF20042CEF20002885465
:104D80000BE0009800019DF8071001F00F014EF6AE
:104D90001452CEF200028854FFE702B070470000C0
:104DA00081B000900099086920F00100086101B00D
:104DB0007047000085B08DF81300039102929DF8B2
:104DC000130000F00F0001900198029908609DF90E
:104DD000130000110090009830B9FFE703990020FC
:104DE000C4F20200086035E00098012807D1FFE70F
:104DF000039940F20040C4F20200086029E00098E4
:104E0000022807D1FFE7039940F60000C4F2020030
:104E100008601DE00098032807D1FFE7039940F6DA
:104E20000040C4F20200086011E00098072807D192
:104E3000FFE7039941F60040C4F20200086005E074
:104E400003990020C4F202000860FFE7FFE7FFE7D4
:104E5000FFE7FFE705B0704781B000900098006958
:104E600000F0010001B0704780B541F20000C4F2CB
:104E7000010000F001F880BD81B00090009800684A
:104E800000F0200001B0704780B582B00020019092
:104E900000F002F8FFE7FEE780B584B0FCF704FFFE
:104EA000FEF772F9FEF702FDFEF7F4FC40F2004057
:104EB000C4F200004FF47A71FEF774FB0C200090EE
:104EC00001210391FCF7E2FA009800210291FCF71E
:104ED0004FFB03990B200190FCF7D8FA0198029937
:104EE000FCF746FB0398FCF7E5FB03990846FCF743
:104EF0008BFD0298FCF7DEFB02980399FCF784FD1A
:104F000004B080BD5FEA400C08BF91F0000F4FEA8B
:104F10008C234FEAC12243EA51514FEA1C5018BF7B
:104F200000F5F0404FEA300018BF41F000415FEA61
:104F30006C5C00F02980BCF1FF3F08BF40F080406E
:104F40007047130C06BF12044FF0100C4FF0000C0A
:104F5000130E04BF12020CF1080C130F04BF120150
:104F60000CF1040C930F04BF92000CF1020CD30F50
:104F700004BF52000CF1010C11464FF00002A0F1E9
:104F80001F00A0EB0C00704711F0004F08BF7047E6
:104F900031F000413FF4D5AF0B0C06BF09044FF0D0
:104FA000100C4FF0000C0B0E04BF09020CF1080CA2
:104FB0000B0F04BF09010CF1040C8B0F04BF890017
:104FC0000CF1020CCB0F04BF49000CF1010CCCF129
:104FD000200322FA03F341EA030102FA0CF2A0EBE8
:104FE0000C0000F10100704723F07F4720F07F4C58
:104FF00080EA030000F00040ACEB070303F57C53AC
:1050000003F1FF032DE9804909B44FEA144324EA70
:1050100003484FEA154B25EA0B4E0FF2042606EB28
:1050200013273E7803FB0667C7F5000707FB06F664
:105030004FEAD64606F102064FEA543707FB066CE4
:10504000CCF1005C4FEA1C472CEA074C0CFB06F540
:1050500007FB06F404EB15464FEA961649085FEA8B
:10506000320234BF00204FF000404FEAD13706FB38
:1050700007FC4FEA1C4C0CFB0BF7D21B03FB0CF795
:1050800061EB07010CFB0EF7B0EB074072EB174228
:105090000CFB08F734BFA2EB0742B2EB074261EB0F
:1050A00017414FEA0C444FEA910706FB07FC4FEA11
:1050B0001C4C0CFB0BF7B0EBC74072EB573203FBF9
:1050C0000CF734BFA2EBC742B2EBC74261EB5731DA
:1050D0000CFB0EF7B0EBC70072EB57720CFB08F736
:1050E00034BFA2EBC702B2EBC70261EB57714FEAC4
:1050F000816141EA92114FEA826242EA90124FEADC
:10510000806004EBCC04039F4FEAD13706FB07FC19
:105110004FEA1C4C0CFB0BF7D21B03FB0CF761EBAB
:1051200007010CFB0EF7B0EB074072EB17420CFBCC
:1051300008F734BFA2EB0742B2EB074261EB17411D
:105140004FEA8C5504EB9C244FEA910706FB07FCC1
:105150004FEA1C4C0CFB0BF7B0EBC74072EB57321D
:1051600003FB0CF734BFA2EBC742B2EBC74261EBC3
:1051700057310CFB0EF7B0EBC70072EB57720CFB0C
:1051800008F734BFA2EBC702B2EBC70261EB57715D
:105190004FEA816141EA92114FEA826242EA90123B
:1051A0004FEA806015EB4C2544F100044FEAD137FB
:1051B00006FB07FC4FEA1C4C0CFB0BF7D21B03FB56
:1051C0000CF761EB07010CFB0EF7B0EB074072EB3D
:1051D00017420CFB08F734BFA2EB0742B2EB0742C1
:1051E00061EB17414FEA813141EA92414FEA823245
:1051F00042EA90424FEA80304FEA0C7615EB1C15DC
:1052000044F1000448EA03434EEA0B484FF0000E15
:10521000B2EB080C71EB030724BF624639464EEB34
:105220000E0E4FF0000B0018524149414BEB0B0B97
:10523000B2EB080C71EB03077BF1000B24BF624655
:1052400039464EEB0E0E4FF0000B0018524149410B
:105250004BEB0B0BB2EB080C71EB03077BF1000B74
:1052600024BF624639464EEB0E0E51EA020718BFC4
:1052700046F0010616EB0E7655F1000254F10001DE
:1052800003D5BDE88901BDE80088BDE88901BDE816
:105290000048B619524141EB0101A3F101037047E7
:1052A00080807F7E7D7C7B7A797877767675747363
:1052B000727171706F6E6E6D6C6C6B6A6A69686822
:1052C000676666656464636362616160605F5F5EB8
:1052D0005E5D5D5C5C5B5B5A5A595958585757562E
:1052E0005655555554545353525252515150505093
:1052F0004F4F4F4E4E4D4D4D4C4C4C4B4B4B4A4AE5
:105300004A49494948484847474747464646454528
:105310004544444444434343434242424241414161
:105320009C46002B30D477002BD04FEA37071CB5B2
:1053300003B44FF010004FF01001BAF1000F06D087
:10534000BCF1000FDCBF40F0080040F008014FF056
:1053500000000FBCBDE810400BF1010BBBF1010FC9
:1053600008BF5FEA170722BF12F1010211F1010124
:105370004FF0004143F1000300F0004043EA000019
:105380007047F9D35708D0E746EA06464FEA164673
:1053900013F1400F1FDD13F1200FDFBF16430A4644
:1053A000002120335B42BED0C3F1200746EA064607
:1053B0004FEA164602FA07F746EA070622FA03F210
:1053C000C3F1200701FA07F742EA070221FA03F1C5
:1053D0004FF00003A7E746EA020646EA06464FEA10
:1053E000164646EA0106BCBF46EA0646360C4FF0B2
:1053F00000034FF000024FF0000194E72DE9804CCC
:1054000070B49A46934691E8380007C831EA400CD8
:1054100048BF34EA430C03D5FFF7E6FDFFF780FFF2
:10542000F0BCBDE8008C2DE9804C70B49A469346E0
:1054300091E8380007C810F0804F08BF13F0804F84
:1054400003D100F005F8FFF76BFFF0BCBDE8008C5E
:1054500020F07F4723F07F4C80EA030000F00040FB
:1054600007EB0C03A3F57C53A3F1FE0392F0000FAE
:1054700000F0B38095F0000F00F077802DE901492E
:105480004FEA114021EA00484FEA144624EA064751
:1054900000FB06FC08FB06F607FB08F818EB0648BD
:1054A0004CEB164C00FB07F718EB07484CEB17408A
:1054B0004FEA124B22EA0B4E4FEA154625EA064701
:1054C0000BFB06FC0EFB06F607FB0EFE1EEB064E64
:1054D0004CEB164C0BFB07F71EEB074E4CEB174B38
:1054E00018EB0B0840F1000018EB0E0B58EB00080E
:1054F00040F100008F1A4FF000014FF000063CBF52
:10550000C943661B14BFB5EB040C00213CBFC94363
:10551000F61B4FEA174427EA04454FEA1C472CEADA
:10552000074C04FB076205FB07F70CFB05F616EBBF
:10553000074642EB174204FB0CFC16EB0C4642EB11
:105540001C421BEB060658EB020241414EEA8E0E4E
:1055500046EA9E0601D5BDE80189B619524141EBE4
:105560000101A3F10103BDE801894FEA144524EAD2
:1055700005464FEA114721EA074C05FB07F406FBF5
:1055800007F70CFB06F111EB074144EB174405FB51
:105590000CFC11EB0C4144EB1C444FEA124722EA8D
:1055A000074C05FB07F206FB07F70CFB06F616EBAC
:1055B000074642EB174205FB0CFC16EB0C4642EB90
:1055C0001C456A1854F1000148BF7047B619524192
:1055D00041EB0101A3F10103704795F0000F37D0B3
:1055E0004FEA114221EA02464FEA144724EA074CE7
:1055F00002FB07F106FB07F70CFB06F414EB07446C
:1056000041EB174102FB0CFC14EB0C4441EB1C4139
:105610004FEA154725EA074C02FB07F506FB07F79B
:105620000CFB06F616EB074645EB174502FB0CFC98
:1056300016EB0C4645EB1C42121951F1000148BF14
:105640007047B619524141EB0101A3F101037047C4
:105650004FEA144524EA05464FEA114721EA074C70
:1056600005FB07F106FB07F70CFB06F212EB0742FE
:1056700041EB174105FB0CFC12EB0C4251EB1C41BA
:105680004FF0000648BF7047921841EB0101A3F1AB
:105690000103704703B401984100009850EAC1200B
:1056A00018BF04204A0D18BF40F0010040F2FF72FD
:1056B000B2EB515F08BF40F00200012808BF05208F
:1056C00002B070470000000010B52DED020B2DED6B
:1056D000088B84B09DED0C0B51EC100B00F072FAAE
:1056E00041EC180B9DED0C0B53EC182B51EC100BEF
:1056F00000F0C2FA41EC190B0D989FED290B10F048
:10570000004F53EC102B51EC190B9FED21AB9FED8B
:1057100022BB0ED000F090F90ED953EC1B2B51ECAC
:10572000190B00F019FA1CD214E000BF41EC180B61
:1057300017E000F081F906D253EC1A2B51EC180B4C
:1057400000F09AFAF2E753EC1B2B51EC190B00F026
:1057500003FA06D853EC1A2B51EC180B00F08AF818
:10576000E4E78DED028B9DED0C0B18EE901A10EE18
:10577000900A8DED000B61F31E0003909DED020B6E
:1057800004B0BDEC088B02B010BD000000000000AA
:10579000000000000000F03F000000000000E03FBB
:1057A000000000000000E0BF30380A2801D20120CC
:1057B000704700207047000010B500290AD0087813
:1057C000002807D005487844FBF71AFE002801D0CE
:1057D000002010BD0248784410BD0000D60900002A
:1057E000CE09000010B500290AD00878002807D09B
:1057F00005487844FBF704FE002801D0002010BDC6
:105800000248784410BD0000C6090000BE0900002F
:1058100021F0004201F00043A2F16052B2F5801F76
:1058200028BFD2F17F6C0BD95FEA001C43EAC202A9
:1058300042EB507018BF704728BF20F0010070473E
:10584000B2F5801FBCBF184670474FEA410C1CF5EB
:10585000001F02D2084600F07BBB70B500F028F9AB
:1058600000000089FFF7F6BF4FF00040A0F5800070
:105870007047000010B591EA030F48BF83F0004362
:1058800000F10282841A71EB030C05D2121943EB6A
:105890000C03001B61EB0C014FEA1154A4EB135CE9
:1058A000DFF81CE11EEA430F18BF9EEA445F00F0D8
:1058B000748021EA045123EA0E0343F48013DCF1DF
:1058C000200E32D322FA0CFE10EB0E0023FA0CFE4F
:1058D00041EB0E01CCF1200E03FA0EFE10EB0E0090
:1058E000CCF1200E51F10001B1F5801F32D201EB55
:1058F000045112FA0EF2BDE8104058BF7047401C28
:1059000038BF5FEA420218BF7047002814BF20F07A
:10591000010041F100014FEA410313F5001F38BFB8
:105920007047A1F1C04100F011B9012A43EB030215
:10593000ACF1200CDCF11F0E32BF4FF0000E23FA49
:105940000CF310EB030041EB0451B4EB115FD0D02A
:10595000A1EB045101F58011490801EB04515FEA04
:1059600030000ED350F1000038BF12FA0EFE08D1FD
:10597000BDE81040C9E7401C38BF5FEA4202CAD107
:10598000C3E7BDE810404FEA410313F5001F38BFDD
:105990007047A1F1C04100F0D9B89EEA445F08D039
:1059A00011EA5E0FBDE8104004BF01F00041002085
:1059B0007047BDE8104070B500F07AF864FBBE3E59
:1059C0000000E0FF491058BFC1F140415B1058BFD3
:1059D000C3F140438B42EFF3008070474FEA11530D
:1059E000A3F58063D3F11E03A8BFD3F1200C08DB1D
:1059F0004FF0004242EAC12252EA505232FA03F01A
:105A0000704709420BD4102BC4BF0020704703F528
:105A1000787CBCF1FF3F05D04FF0FF3070474FF06E
:105A20000000704770B500F043F800BF4992248031
:105A300000207047F0E7000051EA030C17D41CF572
:105A4000801F58BFBCF5801F00F10680994218BF27
:105A5000704708BF9042704707D711F5801F58BFA5
:105A600013F5801F19D499427047894270471CF57D
:105A7000801F08D5BCF5801FF7D58B4218BF704733
:105A800008BF824270474FF4001C1CEB410F38BF27
:105A90001CEB430F01D28B42704770B500F008F841
:105AA000922449004FF000514FF08053FFF78ABF16
:105AB0000EF1020E2EF0030E5EF8046B364205D492
:105AC000012A43EB030515F5001F12D8012841EB0D
:105AD000010C1CF5001F0CD80ED14FEAD17C0CEB49
