:020000040800F2
:1000000078060020650200086D0200086F020008F3
:100010007102000873020008750200080000000069
:10002000000000000000000000000000770200084F
:1000300079020008000000007B020008FD070008AC
:100040007F0200087F0200087F0200087F0200088C
:100050007F0200087F0200087F0200087F0200087C
:100060007F0200087F0200087F0200087F0200086C
:100070007F0200087F0200087F0200087F0200085C
:100080007F0200087F0200087F02000800000000D5
:100090000000000000000000000000007F020008D7
:1000A0007F0200087F0200087F0200087F0200082C
:1000B0007F0200087F0200087F0200087F0200081C
:1000C0007F0200087F0200087F0200087F0200080C
:1000D0007F0200087F0200087F0200080000000085
:1000E000210300087F0200087F02000800000000D2
:1000F0000000000000000000000000007F02000877
:10010000000000007F0200087F0200087F02000854
:1001100000000000000000000000000000000000DF
:100120007F0200087F0200087F0200087F020008AB
:100130007F02000800000000000000000000000036
:100140000000000000000000000000007F02000826
:100150007F0200087F0200087F0200087F0200087B
:100160007F0200087F02000800000000000000007D
:10017000000000000000000000000000000000007F
:10018000000000007F0200080000000000000000E6
:100190007F0200087F02000800F002F800F052F829
:1001A00014A696E8000CB244B344DA4501D100F03D
:1001B00049F8BAE80F000FA696E83000A5EB040551
:1001C00004EB0607AAEB0704A7F101074FEA151590
:1001D0004FEA3414A4F10104AC4201D300F032F828
:1001E00013F0010F18BFFB1A43F0010300F001F8F0
:1001F000DBE718476C0A00008C0A0000103A24BFA5
:1002000078C878C1FAD8520724BF30C830C144BF7B
:1002100004680C6070470000704700000023002451
:1002200000250026103A28BF78C1FBD8520728BF06
:1002300030C148BF0B6070471FB500F004FD1FBD03
:1002400010B510BD00F031F81146FFF7F5FF00F0D2
:1002500013FC00F04FF803B4FFF7F2FF03BC00F00B
:1002600057F800000948804709480047FEE7FEE7C5
:10027000FEE7FEE7FEE7FEE7FEE7FEE7FEE7FEE756
:1002800004480549054A064B7047000071080008FC
:1002900099010008780000207806002078020020EC
:1002A00078020020704770477047754600F02CF8C0
:1002B000AE4605006946534620F00700854618B053
:1002C00020B5FFF7DDFFBDE820404FF000064FF0FE
:1002D00000074FF000084FF0000BAC46ACE8C00937
:1002E000ACE8C009ACE8C009ACE8C00921F00701DE
:1002F0008D46704710B50446AFF300802046BDE838
:100300001040FFF7A8BF0000004870470800002019
:1003100001491820ABBEFEE726000200704700002E
:1003200080B582B02D2000F08BFB30B3FFE740F2A8
:100330006800C2F20000019000684CF6CD41CCF696
:10034000CC41A0FB0121C90801EB8101A0EB4100D8
:1003500000F0ECFB019801680131016000680A2897
:1003600007D3FFE740F26801C2F2000100200860F5
:10037000FFE72D2000F0FAFAFFE702B080BD000091
:1003800080B588B08DF81F00069105929DF91F0079
:1003900004A903AA00F002FB43F64401C4F20201DF
:1003A000086840F48040086004980021C4F202010B
:1003B000884203D1FFE70020029026E0049840F233
:1003C0000041C4F20201884203D1FFE701200290FC
:1003D0001AE0049840F60001C4F20201884203D1F9
:1003E000FFE7022002900EE0049840F60041C4F2BC
:1003F0000201884203D1FFE70320029002E00420BB
:100400000290FFE7FFE7FFE7FFE7039800F0030133
:100410008A000F2101FA02F320F0030143F60802DB
:10042000C4F201028858984388500299039800F05A
:1004300003039B0001FA03F320F0030188581843DB
:100440008850069860B9FFE70399012000FA01F28D
:1004500043F60C41C4F201010868104308602BE028
:10046000069801280CD1FFE70399012000FA01F258
:1004700043F60841C4F201010868104308601AE01D
:100480000698022816D1FFE70399012000FA01F32C
:1004900043F60842C4F2010211681943116003993E
:1004A00000FA01F243F60C41C4F20101086810435E
:1004B0000860FFE7FFE7FFE70399012000FA01F278
:1004C00043F60041C4F201010868104308600020AF
:1004D00001900398042804D8FFE7039806300190A0
:1004E0000AE00398092803D8FFE71720019002E0EB
:1004F00028200190FFE7FFE79DF90400059900F02F
:10050000F1F99DF9040000F0BDF908B080BD0000CC
:1005100080B584B08DF80F0002919DF90F0001A9FC
:100520006A4600F03BFA01980021C4F202018842B9
:1005300003D1FFE700F0BAF8FFE7019840F200416D
:10054000C4F20201884203D1FFE700F0B9F8FFE7E7
:10055000019840F60001C4F20201884203D1FFE78E
:1005600000F0B8F8FFE79DF90F00029900F002F8DB
:1005700004B080BD80B584B08DF80F0002919DF964
:100580000F0001A96A4600F009FA00984100032013
:1005900000FA01F2019908689043086002980099F6
:1005A000490000FA01F2019908681043086004B09C
:1005B00080BD000080B584B08DF80F0002919DF9D8
:1005C0000F0001A96A4600F0E9F9009841000320F4
:1005D00000FA01F2019988689043886002980099B6
:1005E000490000FA01F2019988681043886004B05C
:1005F00080BD000080B584B08DF80F0002919DF998
:100600000F0001A96A4600F0C9F90099012000FA1B
:1006100001F201994868904348600298009900FAF5
:1006200001F2019948681043486004B080BD0000A1
:1006300080B584B08DF80F0002919DF90F0001A9DB
:100640006A4600F0ABF900984100032000FA01F27D
:100650000199C8689043C86002980099490000FA5F
:1006600001F20199C8681043C86004B080BD000061
:1006700080B584B08DF80F0002919DF90F0001A99B
:100680006A4600F08BF90099012000FA01F2019905
:100690004869904348610298009900FA01F2019973
:1006A00048691043486104B080BD000043F6300142
:1006B000C4F20201086840F00100086070470000C1
:1006C00043F63001C4F20201086840F002000860FD
:1006D0007047000043F63001C4F20201086840F0A0
:1006E000040008607047000081B043F60041C4F286
:1006F0000201086820F007000860086840F0020066
:10070000086043F60001C4F20201086840F00100ED
:100710000860FFE743F60000C4F2020000688007AB
:10072000002801D4FFE7F5E743F60001C4F2020117
:10073000086820F08070086043F60402C4F20202E8
:100740000092106820F4800010601068106010683B
:10075000542363F38E1010601068082363F30500C0
:100760001060106820F440301060086840F080701D
:100770000860FFE743F60000C4F20200006800F0E2
:1007800000710020B0EB516F01D0FFE7F2E743F6B4
:100790000801C4F20201086820F00300086008683C
:1007A00040F002000860FFE743F60800C4F20200D0
:1007B000006800F00C00082801D0FFE7F4E743F6DA
:1007C0000801C4F20201086820F0F000086008681F
:1007D00020F4E0500860086840F480500860086821
:1007E00020F46040086040F20001C2F200014BF6C4
:1007F0000050C0F20150086001B0704780B500F0B1
:1008000001F880BD40F26C01C2F2000108680130BD
:100810000860704780B582B04EF21001CEF2000140
:10082000002008600A6842F004020A604EF21403D5
:10083000CEF2000344F61F02C0F201021A604EF22B
:100840001802CEF200021060086840F00200086052
:10085000086840F0010008604FF0FF30019010215F
:1008600000F062F8019800F025F802B080BD0000A9
:100870004EF68851CEF20001086840F4700008601E
:100880007047000081B08DF803009DF90300002837
:100890000ED4FFE79DF9031001F01F0201209040E4
:1008A0004A094EF20011CEF2000141F82200FFE7A2
:1008B00001B0704781B08DF803009DF90300002856
:1008C0000ED4FFE79DF9031001F01F0201209040B4
:1008D0004A094EF20011CEF2000141F82200FFE772
:1008E00001B0704782B08DF8070000919DF90700B4
:1008F00000280AD4FFE7009800019DF907104EF286
:100900000042CEF2000288540BE0009800019DF8EE
:10091000071001F00F014EF61452CEF20002885477
:10092000FFE702B07047000082B08DF80700009129
:100930009DF9070000280AD4FFE7009800019DF9FF
:1009400007104EF20042CEF2000288540BE00098ED
:1009500000019DF8071001F00F014EF61452CEF27F
:1009600000028854FFE702B07047000080B584B0F1
:100970008DF80F009DF90F0002A901AA00F00EF8F2
:100980000199012000FA01F243F61441C4F2010179
:1009900008681043086004B080BD000085B08DF881
:1009A0001300039102929DF8130000F00F000190D4
:1009B0000198029908609DF91300001100900098B9
:1009C00030B9FFE703990020C4F20200086035E067
:1009D0000098012807D1FFE7039940F20040C4F2D4
:1009E0000200086029E00098022807D1FFE7039978
:1009F00040F60000C4F2020008601DE000980328E1
:100A000007D1FFE7039940F60040C4F202000860F6
:100A100011E00098072807D1FFE7039941F600404D
:100A2000C4F20200086005E003990020C4F202004D
:100A30000860FFE7FFE7FFE7FFE7FFE705B0704764
:100A400080B584B08DF80F009DF90F0002A901AAAE
:100A5000FFF7A4FF019901208840009043F614405D
:100A6000C4F20100006800990840401AB0FA80F012
:100A7000400904B080BD000080B582B00020019024
:100A800000F002F8FFE7FEE780B588B0FFF72CFE24
:100A9000FFF7C0FE2D20069000210791FFF738FDDB
:100AA000069801210591FFF7C3FD0720019016214B
:100AB0000291272203920923049300F081F8019800
:100AC0000799FFF797FD02980799FFF793FD0398A1
:100AD0000799FFF78FFD04980799FFF78BFD0198A1
:100AE0000799FFF7A5FD02980799FFF7A1FD039865
:100AF0000799FFF79DFD04980799FFF799FD019865
:100B00000599FFF757FD02980599FFF753FD0398E4
:100B10000599FFF74FFD04980599FFF74BFD0698DF
:100B2000079A1146FFF72CFC08B080BD80B584B051
:100B30008DF80F0040F60810ADF80C0040F204509C
:100B4000C0F20670029040F20010C0F20230019034
:100B50009DF80F1001A8405C8DF8030040F2700072
:100B6000C2F2000090F900009DF8031001F00101AD
:100B7000FFF77EFD40F27100C2F2000090F9000024
:100B80009DF80310C1F34001FFF772FD40F27200BF
:100B9000C2F2000090F900009DF80310C1F380013B
:100BA000FFF766FD40F27300C2F2000090F900000A
:100BB0009DF80310C1F3C001FFF75AFD04B080BDDA
:100BC00080B586B08DF817008DF816108DF81520B9
:100BD0008DF814309DF8171040F27000C2F200003A
:100BE00001709DF8161040F27102C2F200020192EB
:100BF00011709DF8151040F27202C2F200020292CA
:100C000011709DF8141040F27302C2F200020392B8
:100C1000117090F9000001210491FFF779FC01980F
:100C2000049990F90000FFF773FC0298049990F979
:100C30000000FFF76DFC0398049990F90000FFF79E
:100C400067FC06B080BDF1EE100A4FF6FF71C0F2EE
:100C5000C03120EA010040F04070E1EE100A704718
:100C6000800C00080000002008000000FC010008C3
:100C7000880C000808000020700600001C02000814
:080C80000024F4000000000054
:040000050800019955
:00000001FF
