:020000040800F2
:1000000068060020650200086D0200086F02000803
:100010007102000873020008750200080000000069
:10002000000000000000000000000000770200084F
:1000300079020008000000007B0200087D02000831
:100040007F0200087F0200087F0200087F0200088C
:100050007F0200087F0200087F0200087F0200087C
:100060007F0200087F0200087F0200087F0200086C
:100070007F0200087F0200087F0200087F0200085C
:100080007F0200087F0200087F02000800000000D5
:100090000000000000000000000000007F020008D7
:1000A0007F0200087F0200087F0200087F0200082C
:1000B0007F0200087F0200087F0200087F0200081C
:1000C0007F0200087F0200087F0200087F0200080C
:1000D0007F0200087F0200087F0200080000000085
:1000E0007F0200087F0200087F0200080000000075
:1000F0000000000000000000000000007F02000877
:10010000000000007F0200087F0200087F02000854
:1001100000000000000000000000000000000000DF
:100120007F0200087F0200087F0200087F020008AB
:100130007F02000800000000000000000000000036
:100140000000000000000000000000007F02000826
:100150007F0200087F0200087F0200087F0200087B
:100160007F0200087F02000800000000000000007D
:10017000000000000000000000000000000000007F
:10018000000000007F0200080000000000000000E6
:100190007F0200087F02000800F002F800F052F829
:1001A00014A696E8000CB244B344DA4501D100F03D
:1001B00049F8BAE80F000FA696E83000A5EB040551
:1001C00004EB0607AAEB0704A7F101074FEA151590
:1001D0004FEA3414A4F10104AC4201D300F032F828
:1001E00013F0010F18BFFB1A43F0010300F001F8F0
:1001F000DBE71847AC020000CC020000103A24BF35
:1002000078C878C1FAD8520724BF30C830C144BF7B
:1002100004680C6070470000704700000023002451
:1002200000250026103A28BF78C1FBD8520728BF06
:1002300030C148BF0B6070471FB500F023F91FBDE8
:1002400010B510BD00F031F81146FFF7F5FF00F0D2
:10025000B7F800F04FF803B4FFF7F2FF03BC00F06B
:1002600057F800000948804709480047FEE7FEE7C5
:10027000FEE7FEE7FEE7FEE7FEE7FEE7FEE7FEE756
:1002800004480549054A064B70470000AD030008C5
:10029000990100086800002068060020680200201C
:1002A00068020020704770477047754600F02CF8D0
:1002B000AE4605006946534620F00700854618B053
:1002C00020B5FFF7DDFFBDE820404FF000064FF0FE
:1002D00000074FF000084FF0000BAC46ACE8C00937
:1002E000ACE8C009ACE8C009ACE8C00921F00701DE
:1002F0008D46704710B50446AFF300802046BDE838
:100300001040FFF7A8BF0000004870470800002019
:1003100001491820ABBEFEE726000200704700002E
:1003200043F63001C4F20201086840F001000860A1
:100330007047000043F63001C4F20201086840F043
:10034000040008607047000043F60001C4F2020197
:10035000086840F001000860FFE743F60000C4F2BF
:10036000020000688007002801D4FFE7F5E743F6A4
:100370000801C4F20201086820F003000860086860
:100380000860FFE743F60800C4F20200006810F0BE
:100390000C0F01D0FFE7F5E740F20001C2F20001C7
:1003A00042F20040C0F2F400086070474EF68851F7
:1003B000CEF20001086840F4700008607047000049
:1003C00080B584B0002001900390FFF7BDFFFFF7D8
:1003D000A7FFFFF7AFFF01980022C4F202021168E5
:1003E00021F440611160116841F4806111600422C0
:1003F000C4F20202116821F4806111600C22C4F27F
:100400000202116821F4406111600822C4F2020264
:10041000116821F440611160116841F400611160BC
:1004200040F60002C4F20202116821F0406111603E
:1004300040F60C02C4F20202116821F04061116022
:10044000116841F0806111600290FFE740F61000F2
:10045000C4F20200006800F400500290029840B913
:10046000FFE71421C4F20201086840F02000086090
:1004700007E01421C4F20201086820F0200008609F
:10048000FFE7E3E7F1EE100A4FF6FF71C0F2C0316B
:1004900020EA010040F04070E1EE100A70470000D1
:1004A000C00400080000002008000000FC01000853
:1004B000C804000808000020600600001C020008B4
:0804C0000024F400000000001C
:040000050800019955
:00000001FF
