:020000040800F2
:1000000070060020650200086D0200086F020008FB
:100010007102000873020008750200080000000069
:10002000000000000000000000000000770200084F
:1000300079020008000000007B0200085505000856
:100040007F0200087F0200087F0200087F0200088C
:100050007F0200087F0200087F0200087F0200087C
:100060007F0200087F0200087F0200087F0200086C
:100070007F0200087F0200087F0200087F0200085C
:100080007F0200087F0200087F02000800000000D5
:100090000000000000000000000000007F020008D7
:1000A0007F0200087F0200087F0200087F0200082C
:1000B0007F0200087F0200087F0200087F0200081C
:1000C0007F0200087F0200087F0200087F0200080C
:1000D0007F0200087F0200087F0200080000000085
:1000E0007F0200087F0200087F0200080000000075
:1000F0000000000000000000000000007F02000877
:10010000000000007F0200087F0200087F02000854
:1001100000000000000000000000000000000000DF
:100120007F0200087F0200087F0200087F020008AB
:100130007F02000800000000000000000000000036
:100140000000000000000000000000007F02000826
:100150007F0200087F0200087F0200087F0200087B
:100160007F0200087F02000800000000000000007D
:10017000000000000000000000000000000000007F
:10018000000000007F0200080000000000000000E6
:100190007F0200087F02000800F002F800F052F829
:1001A00014A696E8000CB244B344DA4501D100F03D
:1001B00049F8BAE80F000FA696E83000A5EB040551
:1001C00004EB0607AAEB0704A7F101074FEA151590
:1001D0004FEA3414A4F10104AC4201D300F032F828
:1001E00013F0010F18BFFB1A43F0010300F001F8F0
:1001F000DBE718470C0600002C060000103A24BF6D
:1002000078C878C1FAD8520724BF30C830C144BF7B
:1002100004680C6070470000704700000023002451
:1002200000250026103A28BF78C1FBD8520728BF06
:1002300030C148BF0B6070471FB500F0D3FA1FBD37
:1002400010B510BD00F031F81146FFF7F5FF00F0D2
:100250006FFA00F04FF803B4FFF7F2FF03BC00F0B1
:1002600057F800000948804709480047FEE7FEE7C5
:10027000FEE7FEE7FEE7FEE7FEE7FEE7FEE7FEE756
:1002800004480549054A064B70470000C9050008A7
:100290009901000870000020700600207002002004
:1002A00070020020704770477047754600F02CF8C8
:1002B000AE4605006946534620F00700854618B053
:1002C00020B5FFF7DDFFBDE820404FF000064FF0FE
:1002D00000074FF000084FF0000BAC46ACE8C00937
:1002E000ACE8C009ACE8C009ACE8C00921F00701DE
:1002F0008D46704710B50446AFF300802046BDE838
:100300001040FFF7A8BF0000004870470800002019
:1003100001491820ABBEFEE726000200704700002E
:1003200080B584B08DF80F0002919DF90F0001A9EE
:100330006A4600F0ABF901980021C4F2020188423C
:1003400003D1FFE700F05EF8FFE7019840F20041BB
:10035000C4F20201884203D1FFE700F05DF8FFE735
:10036000019840F60001C4F20201884203D1FFE780
:1003700000F05CF8FFE79DF90F00029900F002F829
:1003800004B080BD80B584B08DF80F0002919DF956
:100390000F0001A96A4600F079F900984100032096
:1003A00000FA01F2019908689043086002980099E8
:1003B000490000FA01F2019908681043086004B08E
:1003C00080BD000080B584B08DF80F0002919DF9CA
:1003D0000F0001A96A4600F059F900984100032076
:1003E00000FA01F2019988689043886002980099A8
:1003F000490000FA01F2019988681043886004B04E
:1004000080BD000043F63001C4F20201086840F0EC
:10041000010008607047000043F63001C4F2020199
:10042000086840F0020008607047000043F63001A1
:10043000C4F20201086840F0040008607047000040
:1004400081B043F60041C4F20201086820F00700C1
:100450000860086840F00200086043F60001C4F23A
:100460000201086840F001000860FFE743F6000061
:10047000C4F2020000688007002801D4FFE7F5E716
:1004800043F60001C4F20201086820F080700860A1
:1004900043F60402C4F202020092106820F48000C5
:1004A0001060106810601068542363F38E101060A1
:1004B0001068082363F305001060106820F44030D2
:1004C0001060086840F080700860FFE743F60000A5
:1004D000C4F20200006800F000710020B0EB516F20
:1004E00001D0FFE7F2E743F60801C4F20201086811
:1004F00020F003000860086840F002000860FFE791
:1005000043F60800C4F20200006800F00C0008285E
:1005100001D0FFE7F4E743F60801C4F202010868DE
:1005200020F0F0000860086820F4E05008600868D7
:1005300040F480500860086820F46040086040F291
:100540000001C2F200014BF60050C0F201500860F9
:1005500001B0704780B500F001F880BD40F268013D
:10056000C2F20001086801300860704780B582B0AF
:100570004EF21001CEF20001002008600A6842F03D
:1005800004020A604EF21403CEF2000344F61F0286
:10059000C0F201021A604EF21802CEF200021060A0
:1005A000086840F002000860086840F00100086038
:1005B0004FF0FF300190102100F028F8019800F072
:1005C0000DF802B080BD00004EF68851CEF2000159
:1005D000086840F4700008607047000081B08DF832
:1005E00003009DF9030000280ED4FFE79DF90310D6
:1005F00001F01F02012090404A094EF20011CEF294
:10060000000141F82200FFE701B0704782B08DF889
:10061000070000919DF9070000280AD4FFE7009821
:1006200000019DF907104EF20042CEF200028854FC
:100630000BE0009800019DF8071001F00F014EF645
:100640001452CEF200028854FFE702B07047000057
:1006500082B0019040F26800C2F200000068009091
:10066000FFE740F26800C2F2000000680099401AFB
:100670000199884201D2FFE7F3E740F26801C2F234
:1006800000010020086002B07047000085B08DF8BE
:100690001300039102929DF8130000F00F000190E7
:1006A0000198029908609DF91300001100900098CC
:1006B00030B9FFE703990020C4F20200086035E07A
:1006C0000098012807D1FFE7039940F20040C4F2E7
:1006D0000200086029E00098022807D1FFE703998B
:1006E00040F60000C4F2020008601DE000980328F4
:1006F00007D1FFE7039940F60040C4F2020008600A
:1007000011E00098072807D1FFE7039941F6004060
:10071000C4F20200086005E003990020C4F2020060
:100720000860FFE7FFE7FFE7FFE7FFE705B0704777
:1007300080B584B000200390FFF782FEFFF716FF1C
:10074000052001900221FFF7EBFD01980321FFF73F
:1007500039FE4FF0804002902021C4F20201086867
:1007600020F470000860086840F48010086043F6C8
:100770004001C4F20201086840F0010008600299DB
:10078000086820F010000860029940F24730886243
:1007900002996320C8620299886920F0700088611C
:1007A0000299886940F0600088610299886940F088
:1007B000080088610299322048630299086A20F093
:1007C000020008620299086A40F00100086202997A
:1007D000086840F001000860FFE74FF47A70FFF707
:1007E00037FFFAE7F1EE100A4FF6FF71C0F2C031A1
:1007F00020EA010040F04070E1EE100A704700006E
:10080000200800080000002008000000FC0100088B
:100810002808000808000020680600001C020008E4
:080820000024F40000000000B8
:040000050800019955
:00000001FF
