:020000040800F2
:1000000070060020650200086D0200086F020008FB
:100010007102000873020008750200080000000069
:10002000000000000000000000000000770200084F
:1000300079020008000000007B0200087D02000831
:100040007F0200087F0200087F0200087F0200088C
:100050007F0200087F0200087F0200087F0200087C
:100060007F0200087F0200087F0200087F0200086C
:100070007F0200087F0200087F0200087F0200085C
:100080007F0200087F0200087F02000800000000D5
:100090000000000000000000000000007F020008D7
:1000A0007F0200087F0200087F0200087F0200082C
:1000B0007F0200087F0200087F0200087F0200081C
:1000C0007F0200087F0200087F0200087F0200080C
:1000D0007F0200087F0200087F0200080000000085
:1000E0007F0200087F0200087F0200080000000075
:1000F0000000000000000000000000007F02000877
:10010000000000007F0200087F0200087F02000854
:1001100000000000000000000000000000000000DF
:100120007F0200087F0200087F0200087F020008AB
:100130007F02000800000000000000000000000036
:100140000000000000000000000000007F02000826
:100150007F0200087F0200087F0200087F0200087B
:100160007F0200087F02000800000000000000007D
:10017000000000000000000000000000000000007F
:10018000000000007F0200080000000000000000E6
:100190007F0200087F02000800F002F800F052F829
:1001A00014A696E8000CB244B344DA4501D100F03D
:1001B00049F8BAE80F000FA696E83000A5EB040551
:1001C00004EB0607AAEB0704A7F101074FEA151590
:1001D0004FEA3414A4F10104AC4201D300F032F828
:1001E00013F0010F18BFFB1A43F0010300F001F8F0
:1001F000DBE718477806000098060000103A24BF95
:1002000078C878C1FAD8520724BF30C830C144BF7B
:1002100004680C6070470000704700000023002451
:1002200000250026103A28BF78C1FBD8520728BF06
:1002300030C148BF0B6070471FB500F00AFB1FBDFF
:1002400010B510BD00F031F81146FFF7F5FF00F0D2
:10025000F3F900F04FF803B4FFF7F2FF03BC00F02E
:1002600057F800000948804709480047FEE7FEE7C5
:10027000FEE7FEE7FEE7FEE7FEE7FEE7FEE7FEE756
:1002800004480549054A064B7047000081050008EF
:100290009901000870000020700600207002002004
:1002A00070020020704770477047754600F02CF8C8
:1002B000AE4605006946534620F00700854618B053
:1002C00020B5FFF7DDFFBDE820404FF000064FF0FE
:1002D00000074FF000084FF0000BAC46ACE8C00937
:1002E000ACE8C009ACE8C009ACE8C00921F00701DE
:1002F0008D46704710B50446AFF300802046BDE838
:100300001040FFF7A8BF0000004870470800002019
:1003100001491820ABBEFEE726000200704700002E
:1003200080B584B08DF80F0002919DF90F0001A9EE
:100330006A4600F02FF901980021C4F202018842B8
:1003400003D1FFE700F0CCF8FFE7019840F200414D
:10035000C4F20201884203D1FFE700F0CBF8FFE7C7
:10036000019840F60001C4F20201884203D1FFE780
:1003700000F0CAF8FFE79DF90F00029900F002F8BB
:1003800004B080BD80B584B08DF80F0002919DF956
:100390000F0001A96A4600F0FDF800984100032013
:1003A00000FA01F2019908689043086002980099E8
:1003B000490000FA01F2019908681043086004B08E
:1003C00080BD000080B584B08DF80F0002919DF9CA
:1003D0000F0001A96A4600F0DDF8009841000320F3
:1003E00000FA01F2019988689043886002980099A8
:1003F000490000FA01F2019988681043886004B04E
:1004000080BD000080B584B08DF80F0002919DF989
:100410000F0001A96A4600F0BDF80099012000FA1A
:1004200001F201994868904348600298009900FAE7
:1004300001F2019948681043486004B080BD000093
:1004400080B584B08DF80F0002919DF90F0001A9CD
:100450006A4600F09FF800984100032000FA01F27C
:100460000199C8689043C86002980099490000FA51
:1004700001F20199C8681043C86004B080BD000053
:1004800080B584B08DF80F009DF90F0002A901AA74
:1004900000F080F8029800690199C84000F001005E
:1004A00004B080BD80B584B08DF80F0002919DF935
:1004B0000F0001A96A4600F06DF80099012000FACA
:1004C00001F201994869904348610298009900FA45
:1004D00001F2019948691043486104B080BD0000F1
:1004E00043F63001C4F20201086840F001000860E0
:1004F0007047000043F63001C4F20201086840F082
:10050000020008607047000043F63001C4F20201A7
:10051000086840F0040008607047000043F60001DE
:10052000C4F20201086840F001000860FFE743F6EA
:100530000000C4F2020000688007002801D4FFE731
:10054000F5E743F60801C4F20201086820F0030051
:10055000086008680860FFE743F60800C4F202007C
:10056000006810F00C0F01D0FFE7F5E740F2000142
:10057000C2F2000142F20040C0F2F400086070478D
:100580004EF68851CEF20001086840F47000086011
:100590007047000085B08DF81300039102929DF81A
:1005A000130000F00F0001900198029908609DF976
:1005B000130000110090009830B9FFE70399002064
:1005C000C4F20200086035E00098012807D1FFE777
:1005D000039940F20040C4F20200086029E000984C
:1005E000022807D1FFE7039940F60000C4F2020099
:1005F00008601DE00098032807D1FFE7039940F643
:100600000040C4F20200086011E00098072807D1FA
:10061000FFE7039941F60040C4F20200086005E0DC
:1006200003990020C4F202000860FFE7FFE7FFE73C
:10063000FFE7FFE705B0704780B586B00020019066
:10064000059000F02DF80198049001200390FFE739
:100650002D20FFF715FF029004984CF6CD41CCF603
:10066000CC41A0FB0121C90801EB8101A0EB4100B5
:1006700000F062F8029878B9FFE7039801280BD1DF
:10068000FFE704980130049004980A2803D3FFE799
:1006900000200490FFE7FFE702980390D8E70000EE
:1006A00080B588B0FFF73AFF2D200190002102911C
:1006B000FFF736FE019801210791FFF7C1FE0720E1
:1006C000039016210491272205920923069300F036
:1006D0007DF802990398FFF795FE02990498FFF7B9
:1006E00091FE02990598FFF78DFE02990698FFF793
:1006F00089FE02990398FFF7A3FE02990498FFF779
:100700009FFE02990598FFF79BFE02990698FFF756
:1007100097FE03980799FFF755FE04980799FFF78E
:1007200051FE05980799FFF74DFE06980799FFF7C8
:1007300049FE08B080BD000080B584B08DF80F0080
:1007400040F60810ADF80C0040F20450C0F20670FC
:10075000029040F20010C0F2023001909DF80F109C
:1007600001A8405C8DF8030040F26800C2F200006E
:1007700090F900009DF8031001F00101FFF792FECF
:1007800040F26900C2F2000090F900009DF80310E9
:10079000C1F34001FFF786FE40F26A00C2F200009A
:1007A00090F900009DF80310C1F38001FFF77AFE75
:1007B00040F26B00C2F2000090F900009DF80310B7
:1007C000C1F3C001FFF76EFE04B080BD80B586B0F6
:1007D0008DF817008DF816108DF815208DF814304F
:1007E0009DF8171040F26800C2F2000001709DF8F9
:1007F000161040F26902C2F20002019211709DF8D7
:10080000151040F26A02C2F20002029211709DF8C5
:10081000141040F26B02C2F200020392117090F9C0
:10082000000001210491FFF77BFD0198049990F9E4
:100830000000FFF775FD0298049990F90000FFF79A
:100840006FFD0398049990F90000FFF769FD06B069
:1008500080BDF1EE100A4FF6FF71C0F2C03120EA00
:10086000010040F04070E1EE100A70479008000867
:100870000000002008000000FC01000898080008A3
:1008800008000020680600001C02000800000000AC
:080890000024F4000000000048
:040000050800019955
:00000001FF
