:020000040800F2
:1000000090060020650200086D0200086F020008DB
:100010007102000873020008750200080000000069
:10002000000000000000000000000000770200084F
:1000300079020008000000007B020008ED070008BC
:100040007F0200087F0200087F0200087F0200088C
:100050007F0200087F0200087F0200087F0200087C
:100060007F0200087F0200087F0200087F0200086C
:100070007F0200087F0200087F0200087F0200085C
:100080007F0200087F0200087F02000800000000D5
:100090000000000000000000000000007F020008D7
:1000A0007F0200087F0200087F0200087F0200082C
:1000B000750800087F0200087F0200087F02000820
:1000C0007F0200087F0200087F0200087F0200080C
:1000D0007F0200087F0200087F0200080000000085
:1000E000210300087F0200087F02000800000000D2
:1000F0000000000000000000000000007F02000877
:10010000000000007F0200087F0200087F02000854
:1001100000000000000000000000000000000000DF
:100120007F0200087F0200087F0200087F020008AB
:100130007F02000800000000000000000000000036
:100140000000000000000000000000007F02000826
:100150007F0200087F0200087F0200087F0200087B
:100160007F0200087F02000800000000000000007D
:10017000000000000000000000000000000000007F
:10018000000000007F0200080000000000000000E6
:100190007F0200087F02000800F002F800F052F829
:1001A00014A696E8000CB244B344DA4501D100F03D
:1001B00049F8BAE80F000FA696E83000A5EB040551
:1001C00004EB0607AAEB0704A7F101074FEA151590
:1001D0004FEA3414A4F10104AC4201D300F032F828
:1001E00013F0010F18BFFB1A43F0010300F001F8F0
:1001F000DBE718476010000080100000103A24BFB1
:1002000078C878C1FAD8520724BF30C830C144BF7B
:1002100004680C6070470000704700000023002451
:1002200000250026103A28BF78C1FBD8520728BF06
:1002300030C148BF0B6070471FB500F0FDFF1FBD08
:1002400010B510BD00F031F81146FFF7F5FF00F0D2
:100250003DFE00F04FF803B4FFF7F2FF03BC00F0DF
:1002600057F800000948804709480047FEE7FEE7C5
:10027000FEE7FEE7FEE7FEE7FEE7FEE7FEE7FEE756
:1002800004480549054A064B70470000610800080C
:1002900099010008900000209006002090020020A4
:1002A00090020020704770477047754600F02CF8A8
:1002B000AE4605006946534620F00700854618B053
:1002C00020B5FFF7DDFFBDE820404FF000064FF0FE
:1002D00000074FF000084FF0000BAC46ACE8C00937
:1002E000ACE8C009ACE8C009ACE8C00921F00701DE
:1002F0008D46704710B50446AFF300802046BDE838
:100300001040FFF7A8BF0000004870472000002001
:1003100001491820ABBEFEE726000200704700002E
:1003200080B50D2000F0B6FD68B1FFE740F28C010A
:10033000C2F200010868B0FA80F0400908600D20A0
:1003400000F018FDFFE780BD80B588B08DF81F0074
:10035000069105929DF91F0004A903AA00F040FD33
:1003600043F64401C4F20201086840F4804008608A
:1003700004980021C4F20201884203D1FFE7002063
:10038000029026E0049840F20041C4F20201884243
:1003900003D1FFE7012002901AE0049840F6000123
:1003A000C4F20201884203D1FFE7022002900EE06E
:1003B000049840F60041C4F20201884203D1FFE7ED
:1003C0000320029002E004200290FFE7FFE7FFE72E
:1003D000FFE7039800F003018A000F2101FA02F3FE
:1003E00020F0030143F60802C4F201028858984342
:1003F00088500299039800F003039B0001FA03F36D
:1004000020F00301885818438850069860B9FFE728
:100410000399012000FA01F243F60C41C4F20101F4
:100420000868104308602BE0069801280CD1FFE70C
:100430000399012000FA01F243F60841C4F20101D8
:100440000868104308601AE00698022816D1FFE7F2
:100450000399012000FA01F343F60842C4F20102B5
:10046000116819431160039900FA01F243F60C4137
:10047000C4F20101086810430860FFE7FFE7FFE7E7
:100480000399012000FA01F243F60041C4F2010190
:10049000086810430860002001900398042804D8DD
:1004A000FFE70398063001900AE00398092803D873
:1004B000FFE71720019002E028200190FFE7FFE707
:1004C0009DF90400059900F0E5FB9DF9040000F09A
:1004D00099FB08B080BD000080B584B08DF80F0096
:1004E00002919DF90F0001A96A4600F079FC01987C
:1004F0000021C4F20201884203D1FFE700F0CEF8E8
:10050000FFE7019840F20041C4F20201884203D1A2
:10051000FFE700F0CDF8FFE7019840F60001C4F2D4
:100520000201884203D1FFE700F0CCF8FFE79DF914
:100530000F00029900F002F804B080BD80B584B0CD
:100540008DF80F0002919DF90F0001A96A4600F095
:1005500047FC00984100032000FA01F20199086865
:100560009043086002980099490000FA01F201994D
:1005700008681043086004B080BD000080B584B0F6
:100580008DF80F0002919DF90F0001A96A4600F055
:1005900027FC00984100032000FA01F201998868C5
:1005A0009043886002980099490000FA01F201998D
:1005B00088681043886004B080BD000080B584B0B6
:1005C0008DF80F0002919DF90F0001A96A4600F015
:1005D00007FC0099012000FA01F201994868904354
:1005E00048600298009900FA01F2019948681043A6
:1005F000486004B080BD000080B584B08DF80F0065
:1006000002919DF90F0001A96A4600F0E9FB0098EC
:100610004100032000FA01F20199C8689043C860C4
:1006200002980099490000FA01F20199C868104344
:10063000C86004B080BD000080B584B08DF80F00A4
:100640009DF90F0002A901AA00F0CAFB019901203F
:1006500000FA01F2029948695040486104B080BD37
:1006600080B584B08DF80F0002919DF90F0001A9AB
:100670006A4600F0B5FB0099012000FA01F20199E9
:100680004869904348610298009900FA01F2019983
:1006900048691043486104B080BD000043F6300152
:1006A000C4F20201086840F00100086070470000D1
:1006B00043F63001C4F20201086840F0020008600D
:1006C0007047000043F63001C4F20201086840F0B0
:1006D000040008607047000081B043F60041C4F296
:1006E0000201086820F007000860086840F0020076
:1006F000086043F60001C4F20201086840F00100FE
:100700000860FFE743F60000C4F2020000688007BB
:10071000002801D4FFE7F5E743F60001C4F2020127
:10072000086820F08070086043F60402C4F20202F8
:100730000092106820F4800010601068106010684B
:10074000542363F38E1010601068082363F30500D0
:100750001060106820F440301060086840F080702D
:100760000860FFE743F60000C4F20200006800F0F2
:1007700000710020B0EB516F01D0FFE7F2E743F6C4
:100780000801C4F20201086820F00300086008684C
:1007900040F002000860FFE743F60800C4F20200E0
:1007A000006800F00C00082801D0FFE7F4E743F6EA
:1007B0000801C4F20201086820F0F000086008682F
:1007C00020F4E0500860086840F480500860086831
:1007D00020F46040086040F20001C2F200014BF6D4
:1007E0000050C0F20150086001B0704780B500F0C1
:1007F00001F880BD40F28401C2F2000108680130B6
:100800000860704780B582B04EF21001CEF2000150
:10081000002008600A6842F004020A604EF21403E5
:10082000CEF2000344F61F02C0F201021A604EF23B
:100830001802CEF200021060086840F00200086062
:10084000086840F0010008604FF0FF30019010216F
:1008500000F042FA019800F0EDF902B080BD00000E
:100860004EF68851CEF20001086840F4700008602E
:100870007047000080B54FF0804000F003FB68B384
:10088000FFE740F28000C2F2000001680131016020
:10089000006811280EDBFFE740F28001C2F2000180
:1008A0000020086040F28801C2F2000108680130AF
:1008B0000860FFE740F28800C2F2000000680A28E2
:1008C00007DBFFE740F28801C2F200010020086068
:1008D000FFE74FF0804000F043FAFFE780BD0000E3
:1008E00082B0019000910199086820F01000086022
:1008F000009A0199086840EA0210086002B0704747
:1009000081B000900099C86840F00100C86001B053
:100910007047000080B584B003900291039802995B
:1009200000F06CF80398FFF7EBFF002001900398AC
:100930000021C4F20101884203D1FFE71920019090
:1009400050E00398B0F1804F03D1FFE71C200190E5
:1009500047E0039840F20041C4F20001884203D10D
:10096000FFE71D2001903BE0039840F60001C4F230
:100970000001884203D1FFE71E2001902FE0039879
:1009800040F60041C4F20001884203D1FFE7322063
:10099000019023E0039844F20001C4F2010188426F
:1009A00003D1FFE71820019017E0039844F20041BB
:1009B000C4F20101884203D1FFE7192001900BE046
:1009C000039844F60001C4F20101884203D1FFE715
:1009D0001A200190FFE7FFE7FFE7FFE7FFE7FFE7E8
:1009E000FFE7FFE79DF9040000F03CF99DF90400E2
:1009F000022100F093F904B080BD000080B582B000
:100A00000190009101980021C4F20101884209D1AE
:100A1000FFE743F64401C4F20201086840F0010018
:100A200008607AE00198B0F1804F09D1FFE743F602
:100A30004001C4F20201086840F0010008606BE068
:100A4000019840F20041C4F20001884209D1FFE759
:100A500043F64001C4F20201086840F00200086059
:100A600059E0019840F60001C4F20001884209D122
:100A7000FFE743F64001C4F20201086840F00400B9
:100A8000086047E0019840F60041C4F20001884246
:100A900009D1FFE743F64001C4F20201086840F0C3
:100AA0000800086035E0019844F20001C4F2010139
:100AB000884209D1FFE743F64401C4F20201086805
:100AC00040F48030086023E0019844F20041C4F211
:100AD0000101884209D1FFE743F64401C4F2020153
:100AE000086840F40030086011E0019844F6000105
:100AF000C4F20101884209D1FFE743F64401C4F280
:100B00000201086840F480200860FFE7FFE7FFE784
:100B1000FFE7FFE7FFE7FFE7FFE70198009900F035
:100B20000DF80199086820F0100008600199086824
:100B300040F00100086002B080BD000086B0059062
:100B4000049143F60800C4F2020000688007002800
:100B500006D5FFE74BF60050C0F2015002900EE0C0
:100B600043F60800C4F202000068002030B9FFE735
:100B700042F20040C0F2F4000290FFE7FFE7059860
:100B8000B0F1804F08D0FFE7059840F60041C4F26D
:100B90000001884219D1FFE70298400945F6C521B6
:100BA000C0F67C21A0FB0110C009ADF80E0004982E
:100BB000642148430190BDF80E0001380599886210
:100BC000019801380599C8621AE00298400945F673
:100BD000C521C0F67C21A0FB0110C009ADF80E00B4
:100BE000049864214843ADF80200BDF80E000138B6
:100BF00005998862BDF8020001380599C862FFE7CF
:100C000006B0704781B08DF803009DF903000028FD
:100C10000ED4FFE79DF9031001F01F020120904060
:100C20004A094EF20011CEF2000141F82200FFE71E
:100C300001B0704781B08DF803009DF903000028D2
:100C40000ED4FFE79DF9031001F01F020120904030
:100C50004A094EF20011CEF2000141F82200FFE7EE
:100C600001B0704781B08DF803009DF903000028A2
:100C70000ED4FFE79DF9031001F01F020120904000
:100C80004A094EF20011CEF2000141F82200FFE7BE
:100C900001B0704782B08DF8070000919DF9070000
:100CA00000280AD4FFE7009800019DF907104EF2D2
:100CB0000042CEF2000288540BE0009800019DF83B
:100CC000071001F00F014EF61452CEF200028854C4
:100CD000FFE702B07047000082B08DF80700009176
:100CE0009DF9070000280AD4FFE7009800019DF94C
:100CF00007104EF20042CEF2000288540BE000983A
:100D000000019DF8071001F00F014EF61452CEF2CB
:100D100000028854FFE702B07047000082B08DF8EF
:100D2000070000919DF9070000280AD4FFE700980A
:100D300000019DF907104EF20042CEF200028854E5
:100D40000BE0009800019DF8071001F00F014EF62E
:100D50001452CEF200028854FFE702B07047000040
:100D600081B000900099086920F00100086101B08D
:100D70007047000080B584B08DF80F009DF90F001A
:100D800002A901AA00F02CF80199012000FA01F251
:100D900043F61441C4F2010108681043086004B02E
:100DA00080BD000082B0019040F28400C2F20000D9
:100DB00000680090FFE740F28400C2F20000006883
:100DC0000099401A0199884201D2FFE7F3E740F207
:100DD0008401C2F200010020086002B070470000E8
:100DE00085B08DF81300039102929DF8130000F076
:100DF0000F0001900198029908609DF913000011FD
:100E00000090009830B9FFE703990020C4F2020077
:100E1000086035E00098012807D1FFE7039940F208
:100E20000040C4F20200086029E00098022807D1BF
:100E3000FFE7039940F60000C4F2020008601DE0DD
:100E40000098032807D1FFE7039940F60040C4F259
:100E50000200086011E00098072807D1FFE7039916
:100E600041F60040C4F20200086005E0039900204A
:100E7000C4F202000860FFE7FFE7FFE7FFE7FFE7D4
:100E800005B0704781B000900098006900F0010043
:100E900001B0704780B584B08DF80F009DF90F0048
:100EA00002A901AAFFF79CFF019901208840009048
:100EB00043F61440C4F20100006800990840401A4B
:100EC000B0FA80F0400904B080BD000080B586B063
:100ED00000200490059000F05BF804990520FFF7CE
:100EE000BFFBFFE740F28C00C2F20000006850B187
:100EF000FFE70520FFF7A0FB4FF47A70FFF752FFE2
:100F000000F072F943E005200121FFF7A9FB40F250
:100F10000400C2F20000019090F9000040F280014C
:100F2000C2F2000102910A6840F20C01C2F2000113
:100F30000391895C01F00101FFF792FB0198029A8D
:100F4000039990F902001268895CC1F34001FFF730
:100F500087FB0198029A039990F904001268895C52
:100F6000C1F38001FFF77CFB0198029A039990F985
:100F700006001268895CC1F3C001FFF771FB40F203
:100F80008800C2F20000007800F0A4F8FFE7A9E7AB
:100F900080B592B0FFF7A0FBFFF734FC2D2008903E
:100FA00000210B91FFF798FA08980221FFF724FB24
:100FB0000520099001210A91FFF78EFA09980B99F3
:100FC000FFF7FCFA09980B99FFF716FB09980A99A5
:100FD000FFF7D4FA0B981190FFE71198032827DC4C
:100FE000FFE7119940F20400C2F20000069010F9E8
:100FF000110001210791FFF76FFA0698119910F976
:10100000110000210591FFF7D9FA05990698119A68
:1010100010F91200FFF7F0FA06980799119A10F9E3
:101020001200FFF7ABFAFFE7119801301190D4E7F7
:1010300000F0B4F80820C0F21A0010902720C0F287
:1010400009000F900720C0F216000E901920C0F280
:1010500006000D9000200C90FFE70C98072824DC78
:10106000FFE70C990DA8039010F9110001210491DC
:10107000FFF732FA03980C9910F911000021029140
:10108000FFF79CFA029903980C9A10F91200FFF7E7
:10109000B3FA039804990C9A10F91200FFF76EFA4C
:1010A000FFE70C9801300C90D7E74FF080404FF4E9
:1010B000FA71FFF72FFC0020C4F201000121019119
:1010C000FFF70EFC01992D200022FFF73DF912B029
:1010D00080BD000080B586B08DF8170046F67F70A1
:1010E000ADF8140046F66650C0F27D70049040F2F0
:1010F0003F60C4F65B7003909DF8171003A8405C36
:101100008DF80B009DF80B100120019020EA0101E1
:101110001920FFF7A5FA01989DF80B1001F00201C4
:1011200080EA51010620FFF79BFA01989DF80B1009
:1011300001F0040180EA91010720FFF791FA01987C
:101140009DF80B1001F0080180EAD1011620FFF78D
:1011500087FA01989DF80B1001F0100180EA111137
:101160002720FFF77DFA01989DF80B1001F0200170
:1011700080EA51110920FFF773FA01989DF80B10CE
:1011800001F0400180EA91110820FFF769FA019906
:101190001A20FFF765FA06B080BD000080B582B066
:1011A000192001210191FFF797F901990620FFF716
:1011B00093F901990720FFF78FF901991620FFF79E
:1011C0008BF901992720FFF787F901990920FFF78B
:1011D00083F901990820FFF77FF901991A20FFF799
:1011E0007BF902B080BD000080B582B0FFF7D6FF6A
:1011F000192000210191FFF733FA01990620FFF72A
:101200002FFA072001210091FFF72AFA00991620F2
:10121000FFF726FA01992720FFF722FA0199092002
:10122000FFF71EFA01990820FFF71AFA01991A2010
:10123000FFF716FA02B080BDF1EE100A4FF6FF710B
:10124000C0F2C03120EA010040F04070E1EE100A27
:101250007047000078120008000000202000000005
:10126000FC01000898120008200000207006000011
:101270001C020008000000000024F400000001002F
:1012800010002100000102030405060708090A0BEB
:081290000C0D0E0F0000000020
:040000050800019955
:00000001FF
